:020000040800F2
:1000000010070020250500082D0500082F05000811
:100010003105000833050008350500080000000020
:1000200000000000000000000000000009020008BD
:100030003905000800000000AD0200080D030008AB
:100040003F0500083F0500083F0500083F05000880
:100050003F0500083F050008130A00083F05000897
:100060003F0500083F0500083F0500083F05000860
:100070003F0500083F0500083F0500083F05000850
:100080003F0500083F0500083F0500083F05000840
:100090003F0500083F0500083F0500083F05000830
:1000A0003F0500083F0500083F0500083F05000820
:1000B000990C0008790C00083F0500083F0500086E
:1000C0003F0500083F0500083F0500083F05000800
:1000D0003F0500083F0500083F0500083F050008F0
:1000E0003F0500083F0500083F0500083F050008E0
:1000F0003F0500083F0500083F0500083F050008D0
:100100003F0500083F0500083F0500083F050008BF
:100110003F0500083F0500083F0500083F050008AF
:100120003F0500083F0500083F0500083F0500089F
:100130003F0500083F0500083F0500083F0500088F
:100140003F0500083F0500083F0500083F0500087F
:100150003F0500083F0500083F0500083F0500086F
:100160003F0500083F0500083F0500083F0500085F
:100170003F0500083F0500083F0500083F0500084F
:100180003F0500083F050008DFF814D003F07EFEAD
:100190000021024805F008F9FEE70000C0660008EB
:1001A0001007002080F309887047684680F30988AB
:1001B00004480078C00714BF0220032080F314888D
:1001C0007047000088660008DFF818C0EFF3058369
:1001D0001B0618BF6047EFF31483DB0708BF6047B7
:1001E00000DF704769550008DFF818C0EFF305839A
:1001F0001B0618BF6047EFF31483DB0708BF604797
:1002000000DF7047E9570008EFF30980816911F8B2
:10021000021C002933D190E80F1010B5E047BDE86B
:100220001040EFF3098C8CE807001D4B93E80600A3
:10023000914208BF704781B11EF0100F06BF2CED30
:10024000108A0120002081F820002CE9F00FC1F86D
:1002500024C00CB405F03AFE0CBC1A60D2F824C0DD
:10026000BCE8F00F92F8200000281ABFBCEC108AFE
:100270006FF0120E6FF0020E8CF30988704710B504
:10028000084A1268914209D8074C54F8214090E876
:100290000F10A047EFF3098C8CE80F0010BD000091
:1002A000B8000020B03E0008B03E000810B505F0D0
:1002B000CBFCBDE81040174B93E80600914208BF05
:1002C0007047EFF3098C1EF0100F06BF2CED108A5B
:1002D0000120002081F820002CE9F00FC1F824C093
:1002E0000CB405F0F3FD0CBC1A60D2F824C0BCE8D5
:1002F000F00F92F8200000281ABFBCEC108A6FF0B3
:10030000120E6FF0020E8CF30988704710B505F0DD
:10031000A3FECEE7B80000200CB5002001900090AD
:100320007548006840F480307349086000BF724827
:10033000006800F4003000900198401C0190009883
:1003400018B90198B0F5A06FF1D16B48006810F4AE
:10035000003F02D00120009001E0002000900098B2
:10036000012845D164484030006840F0805062491F
:10037000403108606148006840F480405F4908608F
:100380005D48083000685C4908310860084600682C
:1003900040F4004008600846006840F4A05008603F
:1003A0005748091F0860081F006840F08070091F47
:1003B000086000BF5048006810F0007FFAD040F29B
:1003C0000560504908604C480830006820F0030080
:1003D0004949083108600846006840F0020008609A
:1003E00000BF45480830006800F00C000828F8D12C
:1003F0000CBD10B54448006840F4700042490860E4
:100400003D48006840F001003B49086000203A493F
:1004100008310860384800683C490840364908609F
:100420003B48091D0860081F006820F48020091F50
:100430000860002030490C310860FFF76DFF4FF075
:10044000006031498039086010BD70B5002000227D
:10045000022300240221284D08352D6805F00C00E8
:1004600020B1042806D0082834D107E0294D2A4EAF
:10047000356033E0294D284E35602FE01E4D2D1D8F
:100480002D68C5F380541C4D2D1D2D6805F03F01CE
:1004900054B1224DB5FBF1F5174E361D3668C6F343
:1004A000881605FB06F209E01A4DB5FBF1F5124E70
:1004B000361D3668C6F3881605FB06F20E4D2D1D57
:1004C0002D68C5F301456D1C6B00B2FBF3F5124EB0
:1004D000356003E00F4D104E356000BF00BF064D84
:1004E00008352D68C5F303150D4E705D0A4D2D6856
:1004F000C540094E356070BD0038024000700040B4
:1005000008544007003C024088ED00E0FFFFF6FE83
:10051000103000240024F4000000002000127A00B3
:10052000040000200648804706480047FEE7FEE733
:10053000FEE7FEE7FEE7FEE7FEE7FEE7FEE7FEE793
:10054000F30300088901000800BFFEE700BFFEE7D3
:1005500000205949086000F076FD00F08EFD00F0A3
:100560006BFC00F0FEFB00F0DBFA00F0AFFB534841
:1005700004F070FF524908603221204604F0D2FF97
:100580000021504804F0B0FF4F49086000214F4857
:1005900004F0AAFF4E49086000214E4804F0A4FF71
:1005A0004D49086000214D4804F09EFF4C49086009
:1005B00000214C4804F098FF4B49086000214B484B
:1005C00004F092FF4A49086003E04FF0FF3004F066
:1005D000DFFEFAE710B5044600F093F800F0E2F908
:1005E00010BD10B5044600F0DDFE10BD10B5044688
:1005F00000F0B6FE10BD10B5044600F01DFE10BDA3
:100600002CE000F081FE48B34FF0FF312C48006829
:1006100004F038FF2848006818B90120264908600E
:1006200018E025480068012803D10020224908600D
:1006300010E021480068022803D103201E49086009
:1006400008E01D480068032804D102201A49086008
:1006500000F02CFE1A48006804F008FFD1E70EB540
:1006600028E04FF0FF31012004F032FF8DE8070051
:100670004FF0FF311248006804F004FF0E48006894
:1006800018B10D480068012805D102200A49086008
:1006900000F00CFE0AE008480068022803D0064873
:1006A0000068032802D1002003490860044800685C
:1006B00004F0DCFED5E7000048000020D06600080A
:1006C00064000020146700085C0000202467000814
:1006D00060000020D46600084C0000200467000879
:1006E00058000020F466000854000020E46600086A
:1006F0005000002008B502223921684602F0B5FFFB
:1007000008BD00B5B5B007202C90EE202B905520E9
:100710002A90FF20299007208DF8BA0000208DF83C
:10072000BC008DF8BB008DF8B90040208DF8B800F2
:100730002EA802F084FF40208DF8B40015208DF81B
:10074000B50000208DF8B6002DA802F0CCFF7F2068
:1007500028900121102001F0BFFC00208DF8C4007A
:100760008DF8C7000120309030A9B14801F06EFA31
:10077000012222212CA802F0B2FE01223C212BA84A
:1007800002F0ADFE01223B212AA802F0A8FE0122C0
:100790003D2129A802F0A3FE01223E2128A802F053
:1007A0009EFE0121880301F0DBFC0021042001F002
:1007B000D9FF0120339000208DF8D00008208DF85B
:1007C000D10001208DF8D20033A801F051F90620A4
:1007D0008DF8C80001208DF8C9008DF8CA008DF889
:1007E000CB0032A800F091FEFFF784FF9FED910A45
:1007F000914880ED000A9FED910A80ED010A9FED7E
:10080000900A80ED020A9FED8F0A80ED030A9FEDAA
:100810008E0A80ED040A9FED8D0A80ED050A9FED9A
:100820008C0A80ED060A9FED8B0A80ED070A9FED8A
:100830008A0A80ED080A9FED890A80ED090A9FED7A
:10084000880A80ED0A0A9FED870A80ED0B0A1BA833
:1008500000F049FE0EA800F046FE01A800F043FE9D
:1008600035B000BD30B50B46002122E0002440F831
:10087000214000221AE001EB41046F4D05EB840496
:1008800004EB8204D4ED000A53F8224000EE104A33
:10089000B8EEC00A20EE800ABDEEC00A10EE104A83
:1008A00050F821502C4440F82140521C042AE2DB2D
:1008B000491C0329DADB0468083404604468113CED
:1008C00044608468123C846030BD1FB504466846AD
:1008D00002F071FF4FF47A700390FFF70BFF694647
:1008E0002046FFF7BFFF1FBD70B52DED048B0446FA
:1008F0000D46164600EE106AB8EEC01A00EE105A09
:10090000F8EEC00A00EE104AB8EEC00A00F0D8FABD
:10091000B0EE409AF0EE609A9FED530B53EC102B23
:1009200051EC190B03F02FF841EC100BB0EE408A9C
:10093000F0EE608A51EC180B03F049F900EE100A52
:10094000BDEC048B70BD70B52DED048B04460D46D7
:10095000164600EE106AB8EEC01A00EE105AF8EE15
:10096000C00A00EE104AB8EEC00A00F0FBFAB0EE82
:10097000409AF0EE609A9FED3C0B53EC102B51EC3B
:10098000190B03F000F841EC100BB0EE408AF0EECA
:10099000608A51EC180B03F01AF900EE100ABDEC56
:1009A000048B70BD2DED028B86B031E0012108462D
:1009B00004F08EFD8DE8070003A8FFF786FF2C48A2
:1009C000039900F06FFD2B48049900F06BFD2A4855
:1009D000059900F067FD29480068C8B9264BDA6A16
:1009E000244BD96A224BD86AFFF77EFFB0EE408ACB
:1009F000214BDA6A1F4BD96A1D4BD86AFFF7A3FF58
:100A0000F0EE408AF0EE680AB0EE480A00F0CDF849
:100A1000CCE710B5012001F091F838B10121184858
:100A2000006804F03BFD012001F099F810BD0000C2
:100A3000001002409621863FAC01002075029ABC4E
:100A400017B7D13B5839B43B1826833F2E9020BCB2
:100A5000304CA6BC3B70CEBB9A99813F39D6453D00
:100A6000DC4683BDCDCC4CBCAA9F9622DCA54C4075
:100A7000DC01002010020020440200204800002079
:100A800060000020D0ED0A0AB0F9301000EB8101BF
:100A900091ED001A70EEC10AC0ED0A0AB0F93010EB
:100AA00000EB810181ED000AD0ED0A0AB0F93010A7
:100AB00000EB810191ED001A70EE810AC0ED0A0A87
:100AC000018E491C09B20186018E0A2901D100213B
:100AD0000186D0ED0A0AB2EE041AC0EE811AC0ED0A
:100AE0000B1A7047002106E09FED070A00EB810218
:100AF00082ED000A491C0A29F6DB9FED030A80ED0E
:100B00000A0A0022028670470000000010B5574C08
:100B10002060241D2160241D2260241D236010BD3F
:100B20001CB50121082001F0D7FA4FF4784000905D
:100B300002208DF8040003208DF8050000208DF8B8
:100B4000060001208DF807006946494801F07EF84B
:100B500002220B21464801F004F902220C214448EC
:100B600001F0FFF802220D21414801F0FAF80222BB
:100B70000E213F4801F0F5F802220F213C4801F018
:100B8000F0F800231A4619461846FFF7BFFF1CBDB0
:100B9000F0EE400AF5EEC00AF1EE10FA02D2B1EE24
:100BA000600A7047B0EE600AFBE71FB5F0EE401A2E
:100BB000B0EE601AB0EE080AB4EEC01AF1EE10FA08
:100BC0000ADD002000909FED2B0A21EE000ABDEE09
:100BD000C00A8DED020A18E0B0EE080AB4EEC01AA1
:100BE000F1EE10FA0ED2B0EE410AFFF7D1FFDFEDC1
:100BF000210A20EE200ABDEEC00A8DED000A002079
:100C0000029002E0002000900290B0EE080AF4EE9C
:100C1000C01AF1EE10FA0ADD002001909FED150ACE
:100C200021EE800ABDEEC00A8DED030A18E0B0EE99
:100C3000080AF4EEC01AF1EE10FA0ED2B0EE610A14
:100C4000FFF7A6FFDFED0B0A20EE200ABDEEC00A7B
:100C50008DED010A0020039002E000200190039036
:100C60009DE80F00FFF752FF1FBD00003408004051
:100C7000000C02400000364410B50121884802F003
:100C80000EFB40B101218748006804F007FC0121F8
:100C9000834802F015FB10BD10B50121880702F052
:100CA000FEFA90B101218048006804F0F7FB0121B1
:100CB0007E48006804F0F2FB0121880702F000FB87
:100CC0004FF400617A4801F048F810BD1FB50024C8
:100CD0000121022001F033FA1D208DF80C000020C4
:100CE0008DF80D0001208DF80E008DF80F0003A87F
:100CF00000F00BFC4FF6FF7001900020ADF80000F3
:100D0000ADF808006946664801F011FE3224012260
:100D10002146634801F048FE01221146604802F076
:100D2000A7FA01215E4801F08BFE1FBD1CB5012111
:100D3000022001F0D1F9684600F0D0FF4FF40060C6
:100D4000009001208DF8040003208DF8050000209C
:100D50008DF806008DF807006946554800F076FFCB
:100D60001CBD10B58AB00121042001F0E8F91E2055
:100D70008DF8100000208DF8110001208DF8120070
:100D80008DF8130004A800F0C0FB4FF6FF7002902E
:100D90000020ADF80400ADF80C00ADF8060001A984
:100DA000444801F0C4FD4448006840084349B0FB92
:100DB000F1F0401E84B2012221463E4801F0F4FDCC
:100DC0007020ADF814000120ADF816000420ADF835
:100DD00018004AF2010007900220ADF82000002020
:100DE000ADF822004FF48070ADF824000020ADF87B
:100DF000260005A92F4801F02FFE46F6AD200790EA
:100E000005A92C4801F061FE43F25650079005A950
:100E1000284801F0A7FE41F6AA20079005A9254819
:100E200001F006FF0121234801F00AFE01212148BB
:100E300002F0F7F90AB010BD1FB5002401210846E1
:100E400001F07DF91C208DF80C0000208DF80D00BC
:100E500001208DF80E008DF80F0003A800F055FB5F
:100E60004FF6FF7001900020ADF80000ADF80800CB
:100E700069464FF0804001F05AFD4024012221468E
:100E8000900701F091FD01221146900702F0F0F960
:100E90000121880701F0D4FDFFF748FF1FBD0000C6
:100EA000000400404C0000205400002058000020A6
:100EB000000402400008004000000020808D5B001C
:100EC00010B52DED108BB0EE408AF0EE608AB0EEDA
:100ED000419A19EE100A02F067FE41EC100BB0EED9
:100EE00040EAF0EE60EA9FED481B03F061FAB0EED5
:100EF00040CAF0EE60CA18EE900A02F055FE41ECCE
:100F0000100BB0EE40EAF0EE60EA9FED3F1B03F0FD
:100F10004FFAB0EE40DAF0EE60DA53EC1C2B51ECF5
:100F20001D0B02F089FC41EC100BB0EE40BAF0EE64
:100F300060BA04F085F8B0EE40AAF0EE60AA18EEB0
:100F4000100A02F031FE41EC100BB0EE40FAF0EE68
:100F500060FAB0EE4A1AF0EE6A1A03F039F9BDEC05
:100F6000108B10BD10B52DED108BB0EE408AF0EE59
:100F7000608AB0EE419A19EE100A02F015FE41ECBB
:100F8000100BB0EE40EAF0EE60EA9FED1F1B03F09D
:100F90000FFAB0EE40CAF0EE60CA18EE100A02F086
:100FA00003FE41EC100BB0EE40EAF0EE60EA9FED7C
:100FB000161B03F0FDF9B0EE40DAF0EE60DA53EC08
:100FC0001C2B51EC1D0B02F037FC41EC100BB0EE6A
:100FD00040BAF0EE60BA04F033F8B0EE40AAF0EE9A
:100FE00060AA18EE900A02F0DFFD41EC100BB0EEA3
:100FF00040FAF0EE60FAB0EE4A1AF0EE6A1A03F028
:10100000E7F8BDEC108B10BD0000000000000040B0
:101010001CB50121082001F05FF8684600F05EFE73
:101020004FF47040009001208DF8040003208DF8EB
:10103000050000208DF806008DF807006946BD48C0
:1010400000F004FE1CBD1CB50121084601F044F867
:10105000684600F043FE0120009000208DF8040057
:1010600003208DF8050000208DF806008DF807009C
:101070006946B14800F0EAFD1CBD00B58BB0012106
:10108000080201F06DF80020019002900390049096
:1010900001A800F0E1FA002005908DF818008DF805
:1010A00019000790099001208DF8280005A9A34890
:1010B00000F0A3FA0121A14800F0EAFA012000F0B3
:1010C00005FB0723012210219C4800F021FB012190
:1010D0009A4800F093FB994800F076FB9848FFF798
:1010E00001FD0BB000BD10B52DED028BB0EE408AB6
:1010F000944890ED000A38EE400A9348D0ED000A7B
:10110000B4EEE00AF1EE10FA43DB9048006860B9F3
:1011100000231A464FF6FF711846FFF7F7FC8B487D
:101120000068401C894908602FE088480068012851
:101130000CD100234FF6FF7219461846FFF7E6FC64
:1011400082480068401C814908601EE07F480068B2
:1011500002280CD14FF6FF73002211461046FFF70C
:10116000D5FC7A480068401C784908600DE0774853
:101170000068032809D100231A4619464FF6FF706C
:10118000FFF7C4FC0020714908606E4880ED008ABA
:101190004FE06C4890ED000A30EE480A6A48D0ED06
:1011A000000AB4EEE00AF1EE10FA42DB674800688C
:1011B00050B94FF6FF73002211461046FFF7A6FC08
:1011C00003206249086031E06048006801280CD1C2
:1011D00000231A4619464FF6FF70FFF797FC5B484D
:1011E0000068401E5949086020E0584800680228FD
:1011F0000CD100231A464FF6FF711846FFF786FC04
:1012000052480068401E514908600FE04F4800688E
:1012100003280BD100234FF6FF7219461846FFF73B
:1012200075FC4A480068401E48490860454880ED02
:10123000008ABDEC028B10BD2DED048B84B09FEDB8
:10124000440AB0EE409A30E04FF0FF31012004F044
:101250003FF901AB07C3394800F0F2FA00EE100A7B
:10126000F8EE400A9FED3B1A80EE810AF0EE080A84
:1012700020EE208A384890ED000A78EE400A80EE91
:10128000890AF3EE090A70EE208AB0EE680A2C484B
:10129000FFF7F8FB31480068022806D12848D0ED56
:1012A0000B0AB0EE600AFFF71EFFCDE710B5274826
:1012B000006830B101280CD0022812D0032820D1B8
:1012C00017E000231A4619464FF6FF70FFF71EFC81
:1012D00018E000231A464FF6FF711846FFF716FC78
:1012E00010E000234FF6FF7219461846FFF70EFC78
:1012F00008E04FF6FF73002211461046FFF706FC88
:1013000000E000BF00BF10BD10B501210A4800F089
:10131000FFFC044664B1C82004F03AF801210648F5
:1013200000F0F6FC04460CB9012010BD0020FCE7DB
:101330000020FAE7000C02400000024000200140BB
:10134000780200207C00002070000020680000204F
:101350000AD7233B00F07F456C00002048000020A6
:101360000EB500241AE04FF0FF31012004F0B0F870
:101370008DE807000A48006803280BD140F2333596
:1013800004FB05F304FB05F204FB05F104FB05F087
:10139000FFF7BCFB641C502C00DD0024E3E70000D9
:1013A000480000202DED068B84B066E00121084640
:1013B00004F08EF801AB07C33048006802F0C4FBAC
:1013C00041EC100BB0EE40AAF0EE60AA9FED2C1B92
:1013D00002F0EEFFB0EE409AF0EE609A9FED2A0B1D
:1013E00053EC102B51EC190B02F03FFB41EC100BAE
:1013F000B0EE408AF0EE608A51EC180B02F0B5FBBB
:10140000234908600846006840F28F21484321497B
:10141000086021480068012806D108460368026870
:1014200001680068FFF772FB1448006848B91B4860
:1014300000680D2805DA19480068401C1749086043
:101440001BE00E480068642808DA0C480068401C5D
:101450000A4908600020114908600EE01048006841
:101460000D2805D10020054908600D49086004E0F9
:101470000B480068401C0A49086097E78400002078
:101480000000000000000040000000000000594083
:101490009400002090000020480000208C000020D4
:1014A00088000020B0F9303050F82330826AD21A18
:1014B0008262B0F9302040F82210B0F9303050F894
:1014C0002330826A1A448262028E521C12B2028651
:1014D000028E0A2A01D1002202860A23826A92FB26
:1014E000F3F2C2627047002103E0002240F821209D
:1014F000491C0A29F9DB002282620286704700003B
:1015000033490143334A1160704770B5002100230D
:101510000F22C47824B32F4C246804F4E064C4F58B
:10152000E064C4F30721C1F10404E3B20A41447842
:101530009C40E1B28478144021430C07210E264CD4
:1015400005786155047804F01F050124AC40057846
:101550006D114FF0E02606EB8505C5F8004109E066
:10156000047804F01F040125A5401C4C0678761170
:1015700044F8265070BD1A4A0A400243154B1B1FFF
:101580001A60704739B1134A121D12680243114B99
:101590001B1D1A6006E00F4A121D126882430D4B94
:1015A0001B1D1A607047042808D14FF0E02109691B
:1015B00041F004014FF0E022116107E04FF0E0211B
:1015C000096921F004014FF0E02211617047000029
:1015D0000000FA050CED00E000E400E080E100E02E
:1015E00080FFFF1F10B50121080200F021FE00213D
:1015F0004FF4807000F01CFE10BD30B50246002094
:1016000000235068F84C20400D790C6844EA05240A
:10161000204350609068F54C2040D1E903542C439E
:101620008D682C434D7944EA450420439060D06A8C
:1016300020F470000C7D641EE4B2234340EA0350A2
:10164000D06230BD00210160017141718160C160D3
:1016500001610121017570470021E54A1168E54AE1
:1016600001EA0201D0E9002342EA0302836842EA68
:101670000302C36842EA030242EA0101DE4AC2F8F9
:10168000041370470021016041608160C1607047B0
:1016900021B1826842F00102826003E0826822F098
:1016A0000102826070470A4600214168D34B19400D
:1016B0001143416070474162826270470A460021CF
:1016C000416821F01F0111434160704738B1C8499A
:1016D000096841F40001C84AC2F8041306E0C4498D
:1016E000096821F40001C44AC2F80413704738B1F4
:1016F000BF49096841F48001BF4AC2F8041306E0FB
:10170000BB49096821F48001BB4AC2F80413704741
:10171000F0B504460D4600200021092D11DDE068DA
:10172000A5F10A0606EB4607072606FA07F18843E5
:10173000A5F10A0606EB460603FA06F10843E06047
:101740000CE0206905EB4507072606FA07F18843F8
:1017500005EB450603FA06F108432061072A0FDA74
:10176000606B561E06EB86071F2606FA07F18843B4
:10177000561E06EB860605FA06F10843606322E072
:101780000D2A0FDA206BD61F06EB86071F2606FAF6
:1017900007F18843D61F06EB860605FA06F10843D3
:1017A000206310E0E06AA2F10D0606EB86071F2613
:1017B00006FA07F18843A2F10D0606EB860605FA44
:1017C00006F10843E062F0BD816841F0804181602C
:1017D0007047014600208A6812F4800F01D0012072
:1017E00000E00020704721B1826842F4806282608C
:1017F00003E0826822F480628260704721B18268CF
:1018000042F00202826003E0826822F002028260FB
:10181000704710B50A4600210023416821F4604159
:10182000531E41EA4331416010BD21B1426842F488
:101830000062426003E0426822F400624260704746
:101840000146C86C80B270476D480068704721B18E
:10185000826842F48072826003E0826822F48072BF
:101860008260704721B1826842F40072826003E0B6
:10187000826822F400728260704738B15C4909685E
:1018800041F400515C4AC2F8041306E05849096863
:1018900021F40051584AC2F804137047F0B50446C9
:1018A0001546002000220026092911DDE068A1F17B
:1018B0000A0707EB470C072707FA0CF29043A1F140
:1018C0000A0707EB470703FA07F21043E0600CE052
:1018D000206901EB410C072707FA0CF2904301EB5A
:1018E000410703FA07F210432061A06BC0F30156D1
:1018F000EF1C06F1010CA7EB0C0707EB870C1F2769
:1019000007FA0CF29043EF1C06F1010CA7EB0C0751
:1019100007EB870701FA07F21043A063F0BD10B58B
:101920000A4600210023816B21F44011531E41EA35
:101930000351816310BD08B5002300930090009B04
:101940000B440093009B1A6008BD0A460021816881
:1019500021F470211143816070470A46002181689B
:1019600021F44011114381607047816841F4800186
:1019700081607047014600208A6812F4800F01D010
:10198000012000E00020704721B1426842F48062EB
:10199000426003E0426822F480624260704721B1F5
:1019A000426842F48052426003E0426822F480526E
:1019B0004260704708B5024600200090009201F195
:1019C0002800009B184400900098006880B208BD71
:1019D00010B50B460021D9B2012404FA01F18AB1F5
:1019E00044680C43446010E0FFFEFFFCFDF7FFC0BD
:1019F00004230140E030FCFF00200140FFFD3FFFD9
:101A00000823014044688C43446010BD0246002016
:101A100013680B4201D0012000E000207047CA4348
:101A20000260704770B502460020002300240B12AC
:101A3000556801268E4005EA060415681D4202D04D
:101A40000CB1012000E0002070BD00220A12D34337
:101A500003607047002044490860091D0860091DA3
:101A60000860091D086041483F491431086070470B
:101A700000213D498279002A3AD00A46126803685B
:101A80009A430B461A600A1D126803689A430B1D9D
:101A90001A60027911440A6803681A430A60324ADC
:101AA0000832126803689A432F4B08331A601A1DD4
:101AB000126803689A432C4B0C331A604279102A3F
:101AC0000ED11A1F126803681A43274B08331A6095
:101AD0001A1D126803681A43234B0C331A600DE079
:101AE0002149427911440A6803681A430A6005E0F3
:101AF000027911440A6803689A430A60704700211A
:101B0000016001710C2141710021817170471649FA
:101B1000103109680143144A1032116070470146C0
:101B20000020114A143212680A4201D0012000E05C
:101B3000002070470C4914310860704701460020AE
:101B40000022094B1B6803EA0102074B14331B6890
:101B50000B4202D00AB1012000E000207047024988
:101B60001431086070470000003C0140FFFF7F0017
:101B700010B504468C48844208D10121084600F083
:101B800000FB0021012000F0FCFA5EE0874884425F
:101B900008D10121022000F0F4FA0021022000F017
:101BA000F0FA52E08248844208D10121042000F07A
:101BB000E8FA0021042000F0E4FA46E07D4884427F
:101BC00008D10121082000F0DCFA0021082000F0F3
:101BD000D8FA3AE07848844208D10121102000F078
:101BE000D0FA0021102000F0CCFA2EE07348844295
:101BF00008D10121202000F0C4FA0021202000F0AB
:101C0000C0FA22E06E48844208D10121402000F051
:101C1000B8FA0021402000F0B4FA16E06948844286
:101C200008D10121802000F0ACFA0021802000F0D2
:101C3000A8FA0AE06448844207D10121801500F027
:101C4000A0FA0021A01500F09CFA10BDF0B50A46DC
:101C500000210023002400BF3DE0012505FA01F327
:101C6000156805EA03049C4234D105684F00032639
:101C7000BE40B543056015794E00B5400668354352
:101C800005601579012D02D01579022D16D18568D0
:101C90004F000326BE40B543856055794E00B540E0
:101CA000866835438560456801268E40B5434560AA
:101CB000456896798E40B6B235434560C5684F0099
:101CC0000326BE40B543C560D5794E00B540C66811
:101CD0003543C560491C1029BFD3F0BD4FF6FF71D5
:101CE00001600021017141718171C171704708B5B6
:101CF0004FF480320092009A0A430092009AC26127
:101D0000C161009AC261C2690092C269009208BDB5
:101D10000246002013690B4201D0012000E00020A0
:101D200070470146086980B2704702460020536937
:101D30000B4201D0012000E00020704701464869B5
:101D400080B2704701837047418370470AB10183B5
:101D500000E0418370474161704742694A404261F7
:101D60007047F0B5002300244D07ED0E02FA05F38D
:101D7000CE1000F1200555F826504E07F70E0F261D
:101D8000BE40B543CF1000F1200646F82750CE10D4
:101D900000F1200555F8265045EA0304CE1000F165
:101DA000200545F82640F0BD000002400004024036
:101DB00000080240000C02400010024000140240E3
:101DC00000180240001C024000200240FA4800684F
:101DD00040F00100F84908600020F7490831086028
:101DE000F5480068F5490840F3490860F448091DC2
:101DF0000860081F006820F48020091F0860002088
:101E0000ED490C31086070470021EB4A921C1170BB
:101E100011460870704710B50146002200230020CB
:101E20004A11012A02D1E44C236808E0022A03D1B6
:101E3000E14C7034236802E0DF4C7434236801F015
:101E40001F02012494401C4201D0012000E0002028
:101E500010BD38B5002000900024002500BF3120BF
:101E6000FFF7D9FF05460098401C00900098B0F598
:101E7000A06F01D0002DF2D03120FFF7CCFF08B1C8
:101E8000012400E00024204638BD01460020CA4A53
:101E9000106820F0F80040EAC10010607047C9499E
:101EA000086070470021C44A703211701170012817
:101EB00002D004280AD104E00121BF4A7032117017
:101EC00005E00521BC4A7032117000E000BF00BF80
:101ED0007047BD490860704770B5049C41EA82159F
:101EE0000126C6EB530645EA0645054345EA046567
:101EF000B14E361D356070BDB2490866704782012B
:101F000042EA0172AC4B84331A607047AD4988666F
:101F10007047AC49C864704702460020A64B08339E
:101F2000186820F0EC6042EA01031843A24B083322
:101F300018607047024600209F4B0833186820F055
:101F4000784042EA010318439B4B083318607047FE
:101F500001460020984A0832106820F00300084328
:101F60001060704794480830006800F00C0070471B
:101F700001460020904A0832106820F0F000084323
:101F800010607047014600208B4A0832106820F428
:101F9000E05008431060704701460020864A08322E
:101FA000106820F4604040EAC10010607047F0B54E
:101FB0000021002200240225002602237E4F08373C
:101FC0003F6807F00C0121B1042905D0082937D159
:101FD00005E07E4F076036E07D4F076033E0764FC7
:101FE0003F1D3F68C7F38056734F3F1D3F6807F0A2
:101FF0003F036EB1764FB7FBF3F7DFF8BCC10CF1CE
:10200000040CDCF800C0CCF3881C07FB0CF40CE0DB
:102010006E4FB7FBF3F7DFF8A0C10CF1040CDCF84E
:1020200000C0CCF3881C07FB0CF4634F3F1D3F68D6
:10203000C7F301477F1C7D00B4FBF5F7076002E0A2
:10204000624F076000BF00BF5B4F08373F6807F073
:10205000F00109095F4F7A5C0768D7404760564F27
:1020600008373F6807F4E051890A5A4F7A5C47689D
:10207000D7408760504F08373F6807F46041490BED
:10208000544F7A5C4768D740C760F0BD002100F428
:102090004072B2F5407F0AD1474A0832116821F4F4
:1020A000F8114D4A02401143434A08321160424A36
:1020B00070321268C0F30B031A433F4B70331A603F
:1020C000704741494439086070473F4940390860CA
:1020D000704742490860704739B1374A3032126858
:1020E0000243354B30331A6006E0334A303212680F
:1020F0008243314B30331A60704739B12E4A343243
:10210000126802432C4B34331A6006E02A4A3432F8
:1021100012688243284B34331A60704739B1264A1B
:10212000383212680243244B38331A6006E0224AE0
:10213000383212688243204B38331A60704739B105
:102140001D4A4032126802431B4B40331A6006E0BE
:10215000194A403212688243174B40331A60704765
:1021600039B1154A443212680243134B44331A60A2
:1021700006E0114A4432126882430F4B44331A601E
:10218000704739B10C4A1032126802430A4B1033BF
:102190001A6006E0084A103212688243064B103378
:1021A0001A607047E1B1044A143212680243024BCC
:1021B00014331A6019E0000000380240FFFFF6FEF9
:1021C0001030002400004742800E47420024F400F3
:1021D00000127A00A0000020FFFCFF0F5C014742C4
:1021E0005B4A126882435A4B1A60704739B1584AA9
:1021F000121D12680243564B1B1D1A6006E0544A1A
:10220000121D12688243524B1B1D1A60704739B170
:102210004F4A0C32126802434D4B0C331A6006E0F1
:102220004B4A0C3212688243494B0C331A60704798
:1022300039B1474A103212680243454B10331A60D5
:1022400006E0434A103212688243414B10331A6051
:10225000704739B13E4A3C32126802433C4B3C3332
:102260001A6006E03A4A3C3212688243384B3C33EB
:102270001A60704739B1364A403212680243344B13
:1022800040331A6006E0324A403212688243304BD3
:1022900040331A60704739B12D4A44321268024304
:1022A0002B4B44331A6006E0294A443212688243B9
:1022B000274B44331A60704739B1254A4C321268B3
:1022C0000243234B4C331A6006E0214A4C32126819
:1022D00082431F4B4C331A60704739B11C4A50324D
:1022E000126802431A4B50331A6006E0184A503203
:1022F00012688243164B50331A60704739B1144A42
:10230000D21F12780243124BDB1F1A7006E0104AEC
:10231000D21F127882430E4BDB1F1A7070470C4895
:102320006030006840F08070094960310860704793
:1023300001460020064A083A12680A4201D00120EC
:1023400000E0002070470249891F087070470000B4
:102350001438024010B50446F648844208D10121E1
:102360008014FFF765FF0021A014FFF761FF16E05E
:10237000F148844208D101210014FFF748FF0021F1
:102380002014FFF744FF0AE0EC48844207D1012102
:10239000C013FFF73CFF0021E013FFF738FF10BD2B
:1023A00010B50022028802F441520B884C88234366
:1023B0008C882343CC8823430C8923434C892343B3
:1023C0008C892343CC8923431A430280838B4FF2A9
:1023D000FF74234083830B8A038210BD2DE9F04FE5
:1023E000002502230024012700220026944690465F
:1023F0009146B0F81CA04FF2400B0AEA0B0AA0F875
:102400001CA04FF0020AA0F820A0858BD1F808A0EC
:10241000BAF1020F01D100BF6AE0B1F804A0BAF12D
:10242000000F01D1012700E00227DFF814A3DAF83A
:1024300000A01AF4000F09D0DFF804A3DAF800A016
:102440002AF4000ADFF8F8B2CBF800A0DFF8F0A217
:102450000AF17C0ADAF800A0CAF38818DFF8E0A2D3
:102460000AF17C0ADAF800A0CAF30279DFF8D0A2F8
:10247000AAF1040ADAF800A00AF03F0CDFF8C4A2BF
:10248000BAFBFCFA0AFB08FABAFBF9F6B1F806A0A7
:10249000BAF5007F0ED14FEA162A0AEB8A0A4FEAF4
:1024A0004A0AD1F808B0BAFBFBFA0AF1050A1FFA8A
:1024B0008AF20FE04FEA471AB6FBFAFA0AEB8A0AE9
:1024C0004FEA4A0AD1F808B0BAFBFBFA0AF1050A4A
:1024D0001FFA8AF24FF00A0AB2FBFAF202F0010484
:1024E000A2EB040ACAF34F034FF6FF7A0AEA042468
:1024F000022B01DBFF2B01DD02230024B1F806A033
:102500004AEA040A4AEA030AA0F820A0B1F804A0A3
:10251000B1F80CB04AEA0B0AB1F802B04AEA0B0A69
:10252000B1F800B04AEA0B0A4AF4006A4AEA050523
:102530008583BDE8F08F0021018041808180C180CA
:10254000018141818181C181072101827047002180
:10255000018041808180C1800221816000218181D0
:10256000704721B1028842F04002028004E00288F4
:102570004FF6BF731A400280704721B1828B42F43C
:102580008062828304E0828B4FF6FF331A4082839D
:10259000704702884FF2FF731A40028002880A4394
:1025A00002807047B1F5804F04D1028842F4804226
:1025B000028004E002884BF6FF731A4002807047E5
:1025C000A1F57E42FF3A04D0028842F48072028074
:1025D00004E002884FF6FF631A400280704721B181
:1025E000828842F00402828004E082884FF6FB7306
:1025F0001A408280704721B1828842F010028280A6
:1026000004E082884FF6EF731A408280704730B53D
:1026100000220023848B4FF240052C408483022447
:102620000484828B0C88B4F5007F01D00C8814B927
:102630004FF4807308E00C88B4F5407F03D00C8819
:10264000B4F5807F00D100238C888D892C434D8880
:102650002C431C4344F400642243828330BD014672
:10266000888970478181704721B1028842F4005205
:10267000028004E002884DF6FF731A400280704722
:10268000018841F4805101807047024600200129F1
:1026900001D0108B00E0908A70470146088A70478D
:1026A0001AB183880B43838002E083888B43838045
:1026B000704730B5002400230C110125A540ABB2B2
:1026C0001AB185881D43858002E085889D438580F9
:1026D00030BD0246002013890B4201D0012000E0EA
:1026E00000207047CA4302817047F0B502460020BF
:1026F00000240023002501F00F070126BE40B4B2DC
:102700000B1101269E40B3B2968806EA030516898E
:10271000264202D00DB1012000E00020F0BD10B52E
:10272000002201F00F040123A3409AB2D343038196
:1027300010BD00000030014000380040003C004067
:102740000838024000127A0010B501218803FFF713
:102750006FFD00214FF48040FFF76AFD10BD1A495C
:102760000860704730B500228B071C0F0F2303FA57
:1027700004F2154B08338C1053F824309343124C59
:1027800008348D1044F8253023468C1053F824303B
:102790008C07240F00FA04F423430B4C08348D10EB
:1027A00044F8253030BD0949086070470849086081
:1027B0007047002004492031096811F4807F01D05E
:1027C000012000E00020704700380140DC00274273
:1027D0000004274210B50446FE48844208D1012176
:1027E0000846FFF725FD00210120FFF721FD9DE0B0
:1027F000B4F1804F08D101210846FFF708FD002100
:102800000120FFF704FD91E0F348844208D1012143
:102810000220FFF7FCFC00210220FFF7F8FC85E016
:10282000EE48844208D101210420FFF7F0FC00218A
:102830000420FFF7ECFC79E0E948844208D101214B
:102840000820FFF7E4FC00210820FFF7E0FC6DE022
:10285000E448844208D101211020FFF7D8FC002170
:102860001020FFF7D4FC61E0DF48844208D1012149
:102870002020FFF7CCFC00212020FFF7C8FC55E00A
:10288000DA48844208D101210220FFF7D1FC00215F
:102890000220FFF7CDFC49E0D548844209D101214F
:1028A0000804FFF7C5FC00214FF48030FFF7C0FC9F
:1028B0003CE0D048844209D101214804FFF7B8FC2C
:1028C00000214FF40030FFF7B3FC2FE0CA488442E8
:1028D00009D101218804FFF7ABFC00214FF48020CF
:1028E000FFF7A6FC22E0C548844208D10121402020
:1028F000FFF78DFC00214020FFF789FC16E0C0485F
:10290000844208D101218020FFF781FC0021802032
:10291000FFF77DFC0AE0BB48844207D10121801506
:10292000FFF775FC0021A015FFF771FC10BD002218
:102930000288A84B98420ED0AC4B98420BD0B0F115
:10294000804F08D0A44B984205D0A44B984202D0A7
:10295000A34B984204D14FF68F731A404B881A4309
:10296000A04B984207D0A04B984204D04FF6FF43AB
:102970001A400B891A4302804B68C3620B88038597
:10298000944B984202D0994B984201D18B7A03869E
:102990000123838270474FF0FF31416000210180A5
:1029A00001814180817270470185828270470A46A9
:1029B000002101884FF68F73194011430180704741
:1029C00041627047C16270470146486A70470146DC
:1029D000088D704721B1028842F00202028004E0B3
:1029E00002884FF6FD731A400280704721B10288B9
:1029F00042F00402028004E002884FF6FB731A40A2
:102A00000280704721B1028842F08002028004E017
:102A100002884FF67F731A400280704702884FF693
:102A2000F7731A40028002880A43028070470288C6
:102A30004FF6FF431A40028002880A430280704723
:102A400021B1028842F00102028004E002884FF6C0
:102A5000FE731A400280704770B5002400220023E4
:102A6000058C4FF6FE7635400584028C8388048BF6
:102A70004FF68F752C40B51E2C400D882C43751ECB
:102A80002A408D892A434D882A43524DA84202D0BC
:102A9000564DA84213D14FF6F7752A40CD892A43E7
:102AA0004FF6FB752A408D882A434FF6FF652B4071
:102AB0004FF6FF552B400D8A2B434D8A2B438380C5
:102AC00004838D684563028470BD70B500240022C4
:102AD0000023058C4FF6EF7635400584028C838801
:102AE000048B48F6FF752C404FF6FF452C400D88AF
:102AF0004FF6FF7606EA05252C434FF6DF752A4090
:102B00008D8906EA05152A434D8806EA05152A43EC
:102B1000304DA84202D0354DA8421DD14FF67F75E9
:102B20002A40CD894FF6FF7606EA05152A434FF66F
:102B3000BF752A408D8806EA05152A434FF6FF35F2
:102B40002B404FF2FF752B400D8A06EA85052B437B
:102B50004D8A06EA85052B43838004838D6885634F
:102B6000028470BD70B5002400220023058C4FF64E
:102B7000FF6635400584028C8388848B4FF68F7501
:102B80002C404FF6FC752C400D882C434FF6FF551A
:102B90002A408D894FF6FF7606EA05252A434D889F
:102BA00006EA05252A430B4DA84202D00F4DA84244
:102BB00038D14FF2FF752A40CD894FF6FF7606EAED
:102BC00005252A434FF6FF352A408D8806EA05255C
:102BD0002A4319E0000001400004004000080040C2
:102BE000000C0040001000400014004000040140B0
:102BF00000400140004401400048014000180040EE
:102C0000001C0040002000404EF6FF752B404DF6A2
:102C1000FF752B400D8A06EA05152B434D8A06EAFF
:102C200005152B43838084838D68C563028470BD42
:102C300070B5002200230024058C4EF6FF76354047
:102C40000584038C8488828B48F6FF752A404FF6F2
:102C5000FF452A400D884FF6FF7606EA05252A43F0
:102C60004DF6FF752B408D8906EA05352B434D88BF
:102C700006EA05352B43FE4DA84202D0FD4DA84281
:102C800008D14BF6FF752C400D8A4FF6FF7606EA09
:102C900085152C43848082838D680564038470BD10
:102CA000002101804180818081608181C181018218
:102CB0004182704770B50346002000241846183042
:102CC00001258D40ACB21D8CA5431D8409B1082996
:102CD0000AD100EB610005684FF68F76354005603C
:102CE0000568154305600FE00D1FC5F34E05284428
:102CF000056848F6FF763540056005684FF6FF76B3
:102D000006EA02263543056070BD41637047816362
:102D10007047C1637047016470470A460021018B08
:102D20004FF68F7319401143018370470A46002103
:102D3000018B48F6FF7319404FF6FF7303EA022335
:102D40001943018370470A460021818B4FF68F7328
:102D500019401143818370470A460021818B48F650
:102D6000FF7319404FF6FF7303EA0223194381836F
:102D700070470A460021018B4FF6F7731940114343
:102D8000018370470A460021018B4FF2FF731940FF
:102D90004FF6FF7303EA02231943018370470A4683
:102DA0000021818B4FF6F7731940114381837047DF
:102DB0000A460021818B4FF2FF7319404FF6FF73D3
:102DC00003EA02231943818370470A460021018BDD
:102DD0004FF6FB7319401143018370470A460021E7
:102DE000018B4FF6FF3319404FF6FF7303EA0223BE
:102DF0001943018370470A460021818B4FF6FB730C
:102E000019401143818370470A460021818B4FF698
:102E1000FF3319404FF6FF7303EA022319438183FE
:102E200070470A460021018B4FF67F73194011430A
:102E3000018370470A460021018BC1F30E014FF652
:102E4000FF7303EA02231943018370470A460021F6
:102E5000818B4FF67F7319401143818370470A4677
:102E60000021818BC1F30E014FF6FF7303EA0223A9
:102E70001943818370470A460021018C4FF6FD7388
:102E800019401143018470470A460021018C4FF616
:102E9000F77319401143018470470A460021018CE1
:102EA0004FF6DF7319404FF6FF7303EA021319431D
:102EB000018470470A460021018C4FF67F73194048
:102EC0004FF6FF7303EA02131943018470470A4661
:102ED0000021018C4FF6FF5319404FF6FF7303EAB0
:102EE00002231943018470470A460021018C4FF2E6
:102EF000FF7319404FF6FF7303EA0223194301845D
:102F000070470A460021018C4DF6FF7319404FF6B9
:102F1000FF7303EA023319430184704730B500237D
:102F200001248C40A3B2048C9C430484048C02FAD8
:102F300001F5ADB22C43048430BD30B50023042428
:102F40008C40A3B2048C9C430484048C02FA01F5E7
:102F5000ADB22C43048430BD828B4FF2FF331A4054
:102F60008283828B4FF6FF7303EA01231A43828325
:102F70007047F0B50C461546002100220026078C4C
:102F80004EF6FF7C07EA0C070784818B028C4FF614
:102F9000FF7707EA043640F6FF4739404FF6FF77E0
:102FA00007EA052739434FF6FF7707EA0337394326
:102FB00045F6FF773A4046F480573A4381830284CE
:102FC000F0BD828B4FF6F3731A408283828B0A43E3
:102FD00082837047F0B50C4615460021002200267A
:102FE000078C4FF6FF6C07EA0C070784818B028C75
:102FF0004FF6FF7707EA04264FF60C7739404FF675
:10300000FF7707EA03172F4339434FF2FF573A4040
:1030100046F480773A4381830284F0BD028B4FF2FD
:10302000FF331A400283028B4FF6FF7303EA01233A
:103030001A4302837047F0B50C4615460021002262
:103040000026078C4FF6EF7C07EA0C070784018BFC
:10305000028C4FF6FF7707EA041640F6FF47394027
:103060004FF6FF7707EA033739434FF6FF7703E060
:10307000000001400004014007EA052739434FF6EC
:103080005F773A4046F010073A4301830284F0BD6F
:10309000028B4FF6F3731A400283028B0A430283BA
:1030A0007047F0B50C46154600210022068C4FF6FD
:1030B000FE773E400684018B028C4FF60C76314041
:1030C0007E1C06EA03162E4331434FF6F576324056
:1030D00044F00106324301830284F0BD70B5054619
:1030E0000C46208850B92389A28861882846FFF7BA
:1030F000D8FFE1882846FFF7CBFF25E02088042889
:103100000AD12389A28861882846FFF794FFE188C5
:103110002846FFF783FF17E0208808280AD1238973
:10312000A28861882846FFF755FFE1882846FFF707
:1031300048FF09E02389A28861882846FFF719FF24
:10314000E1882846FFF708FF70BD0021018041801B
:10315000012181800021C180018170472DE9F0416A
:1031600005460C4600260127608808B9022600E0C3
:103170000026A088012801D1022700E0012720882D
:10318000A0B92389A28861882846FFF78AFFE188D1
:103190002846FFF77DFF23893A4631462846FFF748
:1031A0004AFFE1882846FFF739FF13E02389A28808
:1031B00061882846FFF73FFFE1882846FFF72EFF8A
:1031C00023893A4631462846FFF76BFFE1882846B7
:1031D000FFF75EFFBDE8F0810146486B704701468E
:1031E000886B70470146C86B70470146086C704792
:1031F0000A884B881A438B881A43CB881A430B8959
:103200001A434B891A438B891A43A0F8442070470C
:103210000021018041808180C180018141818181C3
:10322000704731B1B0F8442042F40042A0F8442085
:1032300005E0B0F84420C2F30E02A0F84420704725
:1032400021B1828842F00402828004E082884FF635
:10325000FB731A408280704721B1828842F00102DC
:10326000828004E082884FF6FE731A4082807047A5
:103270001AB183890B43838102E083898B43838165
:1032800070478182704702460020138A0B4201D0AA
:10329000012000E000207047CA430282704730B529
:1032A0000246002000230024158A05EA01039589BF
:1032B00005EA010413B10CB1012000E0002030BD8B
:1032C000CA430282704741EA0203A0F848307047BF
:1032D0001AB183890B43838102E083898B43838105
:1032E000704721B1828842F00802828004E082881F
:1032F0004FF6F7731A408280704701894FF6F872D3
:103300001140018170470A46002101894FF68F73F1
:10331000194011430181704730B504460D462946D6
:103320002046FFF7F0FF208940F00700208130BDE4
:103330002DE9F04104460D4616461F46602D06D184
:103340003B46012231462046FFF775FE05E03B462D
:10335000012231462046FFF7A4FE29462046FFF70A
:10336000D2FF208940F007002081BDE8F08130B510
:103370000C4600210189C9B24FF6FF7505EA032505
:10338000154325432943018130BD2DE9F041054610
:103390000E4617469846002443463A46314628468C
:1033A000FFF7E5FF2C894FF6F870044044F007045E
:1033B0004FF68F70044044F070042C81BDE8F0811A
:1033C000F0B504460D4616461F463B463246294692
:1033D0002046FFF7CCFF208940F480402081F0BDDB
:1033E00082884FF68F731A40828082880A438280D7
:1033F000704702894FF6F8731A40028102890A4326
:103400000281704702894FF67F731A400281028958
:103410000A4302817047F0B50C4615461E4600214E
:10342000002200230189028B038C4FF6F877394084
:1034300021434FF6FC473A4040F201173A434FF61A
:10344000DD773B404FF6FF7707EA06172F433B43F4
:10345000018102830384F0BD21B1828842F08002A1
:10346000828004E082884FF67F731A408280704722
:10347000A0F850107047000000BFFEE710B50446EA
:103480004FF48050E849086007E0E7490868411EAA
:10349000E54A116008B9FFF7EFFF0221E348FFF7A3
:1034A00018F90028F1D02146E048FFF7DBF84FF487
:1034B0008050DD49086007E0DB490868411EDA4AB0
:1034C000116008B9FFF7D8FF0121D848FFF701F9CB
:1034D0000028F1D0D548FFF7C2F8C0B210BD70B5D2
:1034E00005460E461446012C01DD46F04006082133
:1034F000CF48FEF729FC3046FFF7C0FF05E02878EB
:10350000FFF7BCFF601E84B26D1C012CF7DA0821A6
:10351000C748FEF717FC70BD00B587B0012108034E
:10352000FEF71EFE01210846FEF7D6FD0121102000
:10353000FEF7D2FD01211020FEF7CEFD0121102063
:10354000FEF7CAFD05221146BA48FEF70AFC05221D
:103550000621B848FEF705FC05220721B548FEF70D
:1035600000FC02208DF8180000208DF81A000220BF
:103570008DF81B008DF819002020059005A9AD4895
:10358000FEF764FB8020059005A9AA48FEF75EFBC4
:103590004020059005A9A748FEF758FBA348FEF771
:1035A000D9FE0020ADF80000ADF80400ADF806002B
:1035B000ADF808004FF40070ADF80A000820ADF82F
:1035C0000C000020ADF80E000720ADF810004FF4FD
:1035D0008270ADF8020069469448FEF7E1FE0121D1
:1035E0009248FEF7BEFF0820059001208DF81800D4
:1035F00000208DF81A0002208DF8190005A98C48CA
:10360000FEF724FB08218A48FEF79CFB0120059069
:1036100000208DF818008DF81A0002208DF819008E
:1036200000208DF81B0005A98148FEF70FFB022042
:10363000059005A97E48FEF709FB07B000BD38B527
:10364000044600200090FFF767FF60782178084368
:10365000E178084321790843A178084300900122CA
:1036600020216846FFF73BFF38BD70B506460C4683
:103670001546012D02DD44F0C00401E044F0800451
:1036800008216B48FEF760FB2046FFF7F7FE06E0D7
:103690000020FFF7F3FE3070681E85B2761C002D07
:1036A000F6DC08216248FEF74DFB70BD38B50446D4
:1036B00000200090012221216846FFF7D6FF9DF8E7
:1036C000000000F0D0000090207861780843A178D5
:1036D00008439DF80010084300900122212168460C
:1036E000FFF7FDFE38BD38B50446002000900122EA
:1036F00038216846FFF7B9FF207861780843A17840
:1037000008430090012238216846FFF7E8FE38BDE3
:1037100038B50446012220216846FFF7A6FF9DF830
:10372000000000F0BF0000909DF8000020430090D2
:10373000012220216846FFF7D2FE38BD38B5044685
:10374000012220216846FFF790FF9DF8000000F05D
:103750007F0000909DF8000020430090012220216E
:103760006846FFF7BCFE38BD38B50446012220216B
:103770006846FFF77AFF9DF8000000F0DF00009038
:103780009DF8000020430090012220216846FFF7A9
:10379000A6FE38BD08B5012221216846FFF765FF66
:1037A0009DF8000040F04000009001222121684671
:1037B000FFF795FE08BD3EB50546002401222021F5
:1037C0006846FFF752FF0622292101A8FFF74DFFA7
:1037D0009DF8000010F0200002D0202820D10FE03A
:1037E00000240AE001A911F8140040B200EBC00067
:1037F000400028602D1D601CC4B2032CF2DB10E0D9
:1038000000240AE001A911F8140040B200EBC00046
:10381000C00028602D1D601CC4B2032CF2DB00E048
:1038200000BF00BF3EBD0000B000002000300140DE
:1038300000100240000002402DE9FE4F804681EA60
:103840000300C00F0C46009021F0004123F000451A
:10385000B8EB0200A94105D24046214690461C46DD
:103860000B46024623F00040104304D14046214657
:1038700003B0BDE8F08F270DC7F30A00C3F30A5168
:103880000290401A0190402866DAC3F3130040F416
:10389000801B0098924620B10023D2EB030A63EB11
:1038A0000B0B01985946C0F14002504600F0ABF9AD
:1038B00006460D4650465946019A00F0C3F910EBF2
:1038C00008006141002487EA115284EAE7731A4331
:1038D0003BD0009A3AB3019A012A4FEA075210DC12
:1038E000001B61EB02014FF0004202EA0752CDE9F2
:1038F0000042001C41F5801132462B4600F0F7F9DA
:10390000B6E7001B61EB0201001C41F580130018B3
:103910005B412018A2F5001747EB030140EAD57080
:10392000B6196D4111E06D084FEA360645EAC075DB
:103930004FEA0752001B61EB0201001C41F58011A8
:1039400049084FEA30000019514132462B4603B076
:10395000BDE8F04F00F0BEB90098012240000023FE
:10396000D0EB020263EBE073009821464FEAE0746B
:10397000B8EB000061EB0401E9E783F000435BE78B
:1039800081F0004158E72DE9FE4F81EA030404F07D
:10399000004421F0004100944FF0000B23F000435D
:1039A00050EA010402D052EA030404D10020014687
:1039B00003B0BDE8F08FC3F30A54C1F30A552C4499
:1039C000A4F2F3340194A0FB0254C1F3130141F4B7
:1039D0008011C3F3130343F4801301FB024400FB83
:1039E000034E840A970A44EA815447EA8357A4FBAA
:1039F000076802958D0A05FB07854FEA932C04FBA7
:103A00000C542705029D4FEA065847EA1637B5EBD6
:103A100008056EEB070C870E920E47EA811742EA03
:103A20008312A7FB0201B6EB0B0164EB00042B0D24
:103A300043EA0C335E1844EB1C50DA465146E7FB70
:103A40000201C5F313044FEA0B3343EA14534FEA60
:103A50000432019C43EA0603A4F10C040294009C86
:103A6000CDE900B400F043F9A2E72DE9F04D81EA79
:103A7000030404F0004B21F0004514464FF0000A07
:103A800023F0004150EA050220D054EA01021DD083
:103A9000C5F30A570246C5F31303C1F31300C1F37C
:103AA0000A5640F4801543F48013A7EB0608101B58
:103AB000D64608F2FD3873EB050002D308F1010881
:103AC00001E092185B41B8F1000F03DA00200146D3
:103AD000BDE8F08D00204FF48011064684460EE0CC
:103AE000171B73EB050705D3121B63EB0503064396
:103AF0004CEA010C49084FEA300092185B4150EA49
:103B00000107EDD152EA030012D082EA040083EAF1
:103B10000501084303D100224FF0004308E0101BC9
:103B2000AB4102D20122002302E06FF001025310E8
:103B30001AEB06004CEB085110EB0A0041EB0B01AD
:103B4000BDE8F04D00F0C6B80EB5C10F80EAE070D8
:103B50000844CA07002140F233438DE80E000A46AC
:103B60000B4600F0C4F803B000BD70B5C1F30A52B3
:103B700001F000450024C1F3130140F2FF3341F48A
:103B800080119A4201DA002070BD40F233439A421C
:103B9000A2F2334203DC524200F044F800E09040CD
:103BA0002C43F1D0404270BD00F0004230F00040A4
:103BB0000AD0C10D01F56071C0F3160042EA01514F
:103BC000C20840071143704700200146704701F0CA
:103BD000004330B421F0004150EA010206D00A0D42
:103BE000A2F56072C1F31301002A02DC30BC002090
:103BF0007047440F44EAC104C100E01830BC00EB38
:103C0000C25000F031B8202A04DB203A00FA02F159
:103C1000002070479140C2F1200320FA03F31943BA
:103C200090407047202A04DB203A21FA02F000215C
:103C3000704721FA02F3D040C2F1200291400843BC
:103C400019467047202A06DBCB17203A41FA02F0CA
:103C500043EAE07306E041FA02F3D040C2F12002E9
:103C600091400843194670470029A8BF7047401C7F
:103C7000490008BF20F00100704710B4B0FA80FC82
:103C800000FA0CF050EA010404BF10BC704749B1BF
:103C9000CCF1200421FA04F411FA0CF118BF01212F
:103CA00021430843A3EB0C01CB1D0106000A002BA6
:103CB000BEBF002010BC704700EBC3501044002969
:103CC000A4BF10BC7047401C490008BF20F0010091
:103CD00010BC704710B5002B08DA401C41F1000100
:103CE00092185B411A4301D120F0010010BD2DE96B
:103CF000F04D92469B4611B1B1FA81F202E0B0FA62
:103D000080F220329046FFF77EFF04460F4640EADD
:103D10000A0041EA0B0153465A46084303D12046A4
:103D20003946BDE8F08D114653EA010015D0C8F1BF
:103D300040025046FFF776FF05460E46504659466C
:103D40004246FFF760FF084301D0012000E0002059
:103D5000054346EAE0762C4337430A984FEA44533A
:103D6000A0EB08004FEAD4240A304FF0000244EAE6
:103D700047544FEAD72502D500200146D1E7010577
:103D800010196941DDE9084500196941BDE8F04DA8
:103D9000A0E770B521F0004303430CD0C1F30A55EE
:103DA0000024D5EB040564EB0403D617AD1AB34128
:103DB00002DB0020014670BD201841EB025170BDAE
:103DC0002DE9F04D00231A461B1A8A4103DB00201F
:103DD0000146BDE8F08DC1F30A52C1F3130141F46D
:103DE00080154FF0000BD10702D100186D41521E13
:103DF0000027044640F2FF11384601EB620A3E46B6
:103E00008046024600204FF48011FFF70BFFC219D5
:103E10007141BB1846EB0100B4EB030C75EB000CD1
:103E200004D3E41A65EB000517460E46241908F181
:103E300001006D4180463428E3DDF91946EB0600A8
:103E4000091BA84103D24FF0FF32134601E00022C4
:103E500013461BEB070046EB0A51BDE8F04DFFF798
:103E600039BF000030B5002904DB4FF00044404268
:103E700064EB0101002B04DB4FF00044524264EB81
:103E80000303994208BF904230BD0000064C074D25
:103E900006E0E06840F0010394E80700984710341A
:103EA000AC42F6D3FCF774F960680008906800082B
:103EB0000000000003B401984100009850EAC120BE
:103EC00018BF04204A0D18BF40F0010040F2FF72F5
:103ED000B2EB515F08BF40F00200012808BF052087
:103EE00002B070470000000070B59F482DED020B36
:103EF0002DED068B079D25F00044A0421DDC9B485C
:103F0000844202DC0FD1069868B19DED060B53EC9C
:103F1000102B51EC100BFFF78FFCBDEC068B02B0A1
:103F200041EC100B70BD002DCCBF9FED910B9FEDB0
:103F3000920BBDEC068B02B070BD9148A04215DD1E
:103F40009048A042D8BF4FF0FF3440DD9DED060BF6
:103F500051EC100BFFF7AEFF042808BF01F02CF95D
:103F60009DED060BBDEC068B02B070BD9DED060B02
:103F700051EC100B01F0A2F941EC100B82488DEDD1
:103F8000060B9FED838BA0423CDD8348A0421FDDE2
:103F900000249FED839B51EC100B53EC192BFFF782
:103FA0004BFC9DED060B41EC1A0B53EC192B51EC1D
:103FB000100BFFF7E8FC53EC182BFFF7DEFC53EC7B
:103FC0001A2BFFF752FD41EC100B8DED060B49E06B
:103FD000012453EC182B51EC100BFFF72DFC9DED39
:103FE000060B41EC190B53EC182B51EC100BFFF79F
:103FF000C4FC53EC192BFFF738FD41EC100B8DED91
:10400000060B2FE06848A0421FDD02249FED689B4D
:1040100051EC100B53EC192BFFF7B5FC53EC182B9C
:10402000FFF70AFC9DED060B41EC180B53EC192B26
:1040300051EC100BFFF7A1FC53EC182BFFF715FD0B
:1040400041EC100B8DED060B0CE053EC102B032410
:104050009FED590B51EC100BFFF707FD41EC100BD6
:104060008DED060B9DED060B53EC102B51EC100B58
:10407000FFF789FC41EC180B53EC182BFFF783FC7E
:1040800041EC190B4E480621B0EE490AF0EE690AE0
:10409000784401F012F853EC182B51EC100BFFF799
:1040A00072FC41EC180B4748B0EE490AF0EE690A81
:1040B0000521784401F001F853EC192B51EC100B59
:1040C000FFF761FC41EC100B51EC180B53EC102B7B
:1040D000002C0EDAFFF7B0FB9DED061B53EC112B05
:1040E000FFF751FC9DED061B53EC112BFFF748FC2D
:1040F00035E0FFF7A1FB9DED061B53EC112BFFF7FD
:1041000042FC41EC100B3048784400EBC40090EDC9
:10411000001B51EC100B53EC112BFFF72EFC9DED07
:10412000061B53EC112BFFF728FC41EC110B274821
:10413000784400EBC40090ED000B51EC110B53ECF4
:10414000102BFFF71DFC41EC100B002DA2BFBDECA6
:10415000068B02B070BD51EC100B81F0004141ECB8
:10416000100BFFE600000000000010440000F07F8C
:10417000182D4454FB21F93F182D4454FB21F9BF5D
:104180000000DC3F0000203E0000F33F0000000084
:10419000000000000000F03F0000E63F00000000CB
:1041A000000000000000004000800340000000000C
:1041B000000000000000F83F000000000000F0BF19
:1041C000942700004A270000D42600008C26000017
:1041D00070B52DED040B2DED028B82B0DDE90534B9
:1041E000DDF81CC062422CF00041224341EAD27546
:1041F0005F4A049E23F00040954205D8754235433E
:1042000040EAD575954210D99DED060B53EC102B65
:104210009DED040B51EC100BFFF70EFB41EC100B66
:1042200002B0BDEC028B04B070BDACF14055A5F1FD
:104230007F6525430BD0022505EAAC7545EAD375A9
:1042400006439FED4D8B9FED4E2B07D010E09DED6B
:10425000040B51EC100B00F0F8FF39E0002D14BFF7
:10426000012D9DED040BDBD0022D34D0032D37D072
:104270000C439FED451B9FED460B0AD0914218D190
:10428000904209D121F0804120F0804007910590B3
:104290000FE0002BC4DA10E03F4C7C44002D08BF37
:1042A00094ED000BBCD0012D0CD0022D13D0032DAA
:1042B00016D0904219D1002BB2DAB0EE410AF0EEDE
:1042C000610AADE794ED000B51EC100B81F0004159
:1042D00041EC100BA4E7B0EE480AF0EE680A9FE745
:1042E000B0EE420AF0EE620A9AE7401A00153C2846
:1042F00017DCBCF1000FBCBF10F13C0F9FED280B89
:104300000FDB9DED060B53EC102B9DED040B51ECD8
:10431000100BFFF7AAFB00F0D1FF00F096FF41EC75
:10432000100B002D8DED000B3FF47AAF012D10D056
:10433000022D9FED1D0B53EC102B9DED000B51EC4E
:10434000100B0ED0FFF719FB53EC182BFFF715FBE2
:10435000BEE710EE900A80F0004001909DED000B4A
:104360005EE7FFF70AFB53EC182BFFF709FBAFE7FB
:104370000000F07F00000000182D4454FB2109408C
:10438000182D4454FB2109C0182D4454FB21F9BFBA
:10439000182D4454FB21F93FBA250000000000000D
:1043A0000000000000000000075C143326A6A13CBA
:1043B0002DE9F04D2DED040B2DED0E8B94B0DDE9C4
:1043C0002350259CDDF888A025F0004624F0004805
:1043D000BAF1000F14BF0121002101EB4502FE4993
:1043E00053184A1093422AD3002814BF01230023F4
:1043F00003EB44030B44F9498B4220D358EA0001F4
:104400009FEDF78B6FD0DFF8E0B35D4503D1BAF1D4
:10441000000F05D181E0BAF1000F08BF002100D0E4
:10442000012101EB450111F5001F08D8002814BF38
:104430000121002101EB440111F5001F0AD99DED76
:10444000240B53EC102B9DED220B51EC100BFFF7BE
:10445000F3F940E00027002DBCBFE449884521DA8C
:10446000E3498845A8BF02271CDAC3451ADCE149A5
:1044700001EB2851142908DDC1F1340220FA02F1C0
:1044800001FA02F282420DD108E058B9C1F11402DA
:1044900028FA02F101FA02F2424503D101F00101CA
:1044A000C1F1020756EA0A019FEDD3AB1CD1002CE3
:1044B0001ADA002D18BF022F01D0012F07D00220D9
:1044C00000F09AFE53EC1A2B51EC180B05E1022078
:1044D00000F092FE7DE041EC100B14B0BDEC0E8BB1
:1044E00004B0BDE8F08D18E09FEDC5BB9FEDC69B05
:1044F000002877D1BD48804522D105F1804010F5D4
:10450000801008BFBAF1000F07D0B3450ADC002CB9
:10451000A8BF9DED240BE0DA0DE0B0EE480AF0EE06
:10452000680ADAE7002C06DA9DED240B51EC100B3B
:1045300081F00041CFE7B648784490ED000BCCE71E
:10454000D84553D1002C4EDA2EB1864240D1BAF173
:10455000000F48D12CE0BAF1000F19D0022000F072
:104560004BFE53EC192B51EC190BFFF70CFA41ECF5
:10457000100B8DED020B9DED220B8DED000B10EE5F
:10458000900A039961F31E0003909DED020BA4E7CE
:104590008DED02BB9DED220B1BEE901A10EE900AE2
:1045A0008DED000B61F31E0003909DED020B94E76F
:1045B0008DED02AB9DED220B1AEE901A10EE900AD3
:1045C0008DED000B61F31E0003909DED020B84E75F
:1045D00009DA9DED220B51EC180B53EC102BFFF771
:1045E00044FA78E71DE09DED220B76E7864218DA63
:1045F000B4F1804F0DD0A4F10050B0F1FF5010D1B4
:10460000002D0EDB9DED220B51EC100B01F026FE70
:1046100061E79DED220B53EC102B51EC100B00F0D9
:10462000E1BC9DED220B51EC100B00F047FE41EC7C
:10463000100BBAF1000F8DED120B34D19FED760BFC
:10464000DEB1A6F1E040B0F17F602CD1002D01DD9C
:10465000002C0DDA002D01DD002C1FDB002D16DAF9
:10466000002C14DB012F08BF9FED6D0B3FF435AF1D
:10467000B0EE4B0AF0EE6B0A2FE7022F18BF002DA9
:104680000CD0012F0AD1002DFFF627AF06E0002D38
:10469000B8BF002C07DA012F3FF41FAFB0EE4A0A73
:1046A000F0EE6A0A19E7012000EBE5700490384348
:1046B0000CD05D48002580457DDD5C495C4888451F
:1046C00013DDB0420CDB002C18DB30E0012000F0E1
:1046D00093FD53EC1A2B51EC1A0BFFF7C6F9FAE6CF
:1046E000B34502DC002C09DC21E0864202DA002C12
:1046F0001DDA03E05E452DDD002C18DD022000F000
:104700007BFD53EC192B51EC190BFFF73CF941ECF5
:10471000100B1BEE900A10EE901A8DED020B8DED32
:1047200000BB61F31E0003909DED020BD5E6022055
:1047300000F062FD00F040FD10EE901A18EE900AB5
:104740008DED020B8DED008B61F31E0003909DED4E
:10475000020BC2E69DED220B53EC182B51EC100B13
:10476000FFF70BF941EC100B8DED0C0B9FED320BAD
:1047700053EC102B9DED0C0B51EC100BFFF703F9D4
:104780009FED2F1B53EC112BFFF7FAF89DED0C1B3F
:1047900053EC112BFFF7F7F89FED2B1B53EC112B6C
:1047A000FFF7EEF89DED0C0B41EC1A0B53EC102BC0
:1047B00051EC100B00E08AE0FFF7E5F853EC1A2B00
:1047C000FFF7E1F89FED220B41EC1B0B53EC102B94
:1047D0009DED0C0B40E00000FFFF1F00FFFF0F00EE
:1047E000000000000000F03F0000F03F0000F07FFC
:1047F0000000404301FCFFFF00000000000000003B
:10480000000000000000F07F0000000000000070C9
:104810001C230000000000000000000000000080D9
:10482000000000000000F0FF0000E0410000F04345
:10483000FFFFEF3F00000000000000000000D03F3D
:10484000555555555555D53F000000000000E03F37
:10485000000000604715F73F51EC100BFFF793F88D
:1048600041EC1A0B9FEDFE0B51EC1B0B53EC102B84
:10487000FFF789F841EC1B0B9FEDFB0B53EC102B62
:104880009DED0C0B51EC100BFFF77DF853EC1B2B3F
:10489000FFF773F841EC1B0B51EC1A0B53EC1B2B7D
:1048A000FEF7CAFF41EC100B53EC1A2B8DED080BF1
:1048B00008959DED080B51EC100BFFF75EF853ECDB
:1048C0001B2BFFF75DF841EC100B00F0AFB9002097
:1048D000B6F5801F11DA9FEDE60B53EC102B9DED22
:1048E000120B51EC100BFFF74EF841EC100B6FF070
:1048F000340010EE906A8DED120BDF4900EB26506C
:10490000A0F2FF38C6F3130040F07F6646F0405631
:104910008842D8BF002409DDD8498142C8BF01249C
:1049200004DC002408F10108A6F58016D448784478
:1049300000EBC40A13969AED000B53EC102B9DED7F
:10494000120B51EC100BFFF718F89AED000B41EC2D
:104950001B0B53EC102B9DED120B51EC100BFEF7C3
:104960006BFF41EC100B51EC180B53EC102BFFF7C5
:104970007CF841EC1C0B51EC1B0B53EC1C2BFFF790
:1049800002F841EC1A0BBF488DED0AAB78440A954A
:1049900090ED000B4FF0005040EA660000EB8440C1
:1049A0008DED100B00F5002011909AED000B53ECEB
:1049B000102B9DED100B51EC100BFEF7DEFF9DED63
:1049C000121B53EC112BFEF7DBFF41EC100B53ECE9
:1049D000102B9DED0A0B51EC100BFEF7D4FF9DED53
:1049E000100B41EC1D0B53EC102B9DED0A0B51EC01
:1049F000100BFEF7C8FF53EC1B2BFEF7C1FF53EC67
:104A00001D2BFEF7BAFF53EC1C2BFEF7BCFF41EC4D
:104A10001C0B53EC1A2B51EC1A0BFEF7B4FF41ECB4
:104A20001B0B99480621B0EE4B0AF0EE6B0A784456
:104A300000F043FBB0EE40DAF0EE60DA53EC1B2BF3
:104A400051EC1B0BFEF79FFF53EC1D2BFEF79BFF5A
:104A50009DED0A0B41EC1B0B53EC1A2B51EC100B88
:104A6000FEF7EAFE53EC1C2BFEF78DFF53EC1B2BDD
:104A7000FEF7E2FE9DED0A0B41EC1D0B53EC102BF3
:104A800051EC100BFEF77FFF41EC1B0B9FED80EB11
:104A900053EC1E2BFEF7D0FE53EC1D2BFEF7CCFE85
:104AA00041EC100B53EC1E2B8DED100B10959DED72
:104AB000100B51EC100BFEF760FF53EC1B2BFEF7B5
:104AC0005CFF53EC1D2BFEF75BFF9DED100B41ECE3
:104AD0001D0B53EC102B9DED0A0B51EC100BFEF748
:104AE00052FF41EC1B0B53EC1A2B51EC1D0BFEF744
:104AF0004AFF9DED100B41EC1A0B53EC102B51ECBF
:104B00001C0BFEF740FF53EC1A2BFEF795FE41EC11
:104B10001A0B51EC1B0B53EC1A2BFEF78DFE41ECDC
:104B2000100B53EC1B2B8DED0A0B0A959DED0A0B18
:104B300051EC100BFEF721FF53EC1A2BFEF720FF70
:104B400041EC1A0B9FED540B53EC102B9DED0A0B0F
:104B500051EC100BFEF717FF41EC1B0B9FED500BB8
:104B600051EC1A0B53EC102BFEF70DFF41EC1A0B16
:104B70009FED4D0B53EC102B9DED0A0B51EC100BE0
:104B8000FEF701FF53EC1A2BFEF756FE41EC100B1B
:104B90004748784400EBC40090ED001B51EC100B2B
:104BA00053EC112BFEF748FE41EC1A0B4046FEF782
:104BB000CBFF41EC100B53EC1A2B8DED0C0B51EC91
:104BC0001B0BFEF739FE41EC100B3A48784400EB22
:104BD000C40451EC100B94ED001B53EC112BFEF7A9
:104BE0002BFE9DED0C1B53EC112BFEF725FE41EC2B
:104BF000100B8DED080B08959DED0C0B53EC102B55
:104C00009DED080B51EC100BFEF7B7FE94ED000B79
:104C100053EC102BFEF7B1FE53EC1B2BFEF7ADFE51
:104C200053EC1A2BFEF7ACFE41EC100B0498791EE6
:104C3000B0EE48BAF0EE68BA084308BF9FED1E8B8D
:104C40009DED241B53EC102B8DED001B00959DED6D
:104C5000240B51EC100BFEF796FE41EC1A0B2FE0E3
:104C6000FE822B654715F73F44DF5DF80BAE543EDF
:104C700000000000000040438E9803007AB60B004D
:104C8000061E0000C81E0000361D000000000000C7
:104C90000000000000000840000000E009C7EE3FEF
:104CA000FD033ADC09C7EE3FF5015B14E02F3EBE81
:104CB000C21B0000781B0000000000000000F0BFD5
:104CC0009DED000B53EC102B9DED240B51EC100BC4
:104CD000FEF753FE9DED081B53EC112BFEF753FE20
:104CE00053EC1A2BFEF7A8FD9DED080B41EC1A0BB7
:104CF00053EC102B9DED000B51EC100BFEF743FE17
:104D000041EC100B51EC1A0B8DED0A0B53EC102BF0
:104D1000FEF792FD41EC100BB54910EE904A10EEF3
:104D2000100A8DED020B8C4235DB611A084318D155
:104D30009DED0A0B53EC102B9DED020B51EC100B6B
:104D4000FEF71BFE41EC1C0B9FEDAB0B51EC1A0B5D
:104D500053EC102BFEF770FD53EC1C2BFFF782F881
:104D600033D2022000F048FA53EC192B51EC190B06
:104D7000FEF709FE41EC100B18EE900A10EE901AA7
:104D80008DED020B8DED008B61F31E0003909DED08
:104D9000020BFFF7A2BB9A4A24F00041914214D3C0
:104DA0009849214408437FF4C2AC9DED0A0B53ECB3
:104DB000102B9DED020B51EC100BFEF7DEFD53ECBA
:104DC0001A2BFFF74FF87FF6B2AC24F000408E4963
:104DD0008E4A002601EB20519042D8BF9DED0A0B70
:104DE0002DDD481C4FF4801121FA00F02044C0F35F
:104DF0000A51874AA1F2FF317A4492ED000B854AAD
:104E00008DED0C0BCA4020EA0202C0F3130040F4FF
:104E10008010C1F1140120FA01F60D92002CB8BFE8
:104E200076429DED0C0B53EC102B9DED0A0B51ECD3
:104E3000100BFEF7A2FD41EC100B8DED0A0B53ECAD
:104E4000102B51EC1A0BFEF7F7FC41EC100B8DED1B
:104E50000C0B9FED710B0C9553EC102B9DED0C0B77
:104E600051EC100BFEF78FFD41EC190B9FED6C0B15
:104E700053EC102B9DED0C0B51EC100BFEF783FD4A
:104E80009DED0A0B41EC1C0B53EC102B9DED0C0B14
:104E900051EC100BFEF771FD53EC1A2BFEF770FD71
:104EA0009FED611B53EC112BFEF76DFD53EC1C2B9A
:104EB000FEF7C2FC41EC1A0B51EC190B53EC1A2B08
:104EC000FEF7BAFC41EC100B53EC192B8DED020BE5
:104ED000FEF753FD53EC1A2BFEF752FD9DED020B2E
:104EE00041EC190B53EC102B51EC100BFEF74BFD62
:104EF00041EC100B4E488DED0C0B0521784400F071
:104F0000DCF89DED0C1B51EC100B53EC112BFEF754
:104F10003AFD9DED021B53EC112BFEF731FD41ECE8
:104F2000100B53EC192B8DED080B9DED020B51EC82
:104F3000100BFEF728FD53EC192BFEF77DFC9FEDBF
:104F40003E0B41EC1A0B53EC102B9DED080B51EC72
:104F5000100BFEF712FD9DED080B41EC190B53EC05
:104F6000102B9DED020B51EC100BFEF70CFD53ECDA
:104F7000192BFEF77AFD53EC1A2BFEF7FEFC9DED84
:104F8000021B53EC112BFEF7F8FC53EC1B2BFEF726
:104F9000F7FC41EC100B10EE900A8DED020B00EBCC
:104FA000065001150029C4BF03909DED020B15DCCE
:104FB000324651EC100BFEF7ECFEFEF77BFF0428A7
:104FC00008BF00F0F9F832469DED020B51EC100BD2
:104FD000FEF7DFFE41EC100B8DED020B53EC102BB6
:104FE00051EC180BFEF7CFFCFFF775BA000000007C
:104FF0000000904000000000FE822B654715973CA2
:1050000000CC904000346F3F01FCFFFF0000E03F08
:105010005C1A0000FFFF0F0000000000432EE63F77
:10502000396CA80C615C20BEEF39FAFE422EE63FD7
:105030009818000000000000000000000000004080
:1050400000B52DED048BB0EE408AF0EE608A83B09F
:1050500051EC180BFEF7B4FE41EC190B19EE100AD7
:1050600019EE901A8DED009B002818BF012008430F
:1050700020F00040C0F17F6000F1E040C00F14D08C
:1050800018EE101A18EE900A8DED008B002918BF4B
:105090000121084320F00040C0F17F6000F1E040B2
:1050A000C00F04BF012000F0A7F8B0EE490A03B01A
:1050B000F0EE690ABDEC048B00BD70B504462DED21
:1050C000028B4D1E00EBC500B0EE408AF0EE608A08
:1050D00090ED000B35F0060017D053EC182B51EC77
:1050E000100BFEF750FC41EC100B6D1E04EBC500DD
:1050F00090ED001B51EC100B53EC112BFEF79CFBB9
:1051000041EC100B35F00600E7D1022D36D0042D0E
:105110001CD0062D1CBFBDEC028B70BD53EC182BB0
:1051200051EC100BFEF72FFC94ED0A1B53EC112BE6
:10513000FEF782FB53EC182BFEF725FC94ED080BD1
:1051400053EC102BFEF778FB41EC100B53EC182BB3
:1051500051EC100BFEF717FC94ED060B53EC102BE3
:10516000FEF76AFB53EC182BFEF70DFC94ED041BC5
:1051700053EC112BFEF760FB41EC100B53EC182B9A
:1051800051EC100BFEF7FFFB94ED020B53EC102BD0
:10519000FEF752FB53EC182BFEF7F5FB94ED000BDA
:1051A00053EC102BFEF748FBBDEC028B41EC100BCF
:1051B00070BD0000000000009FED050B10B553EC22
:1051C000102B51EC100BFEF7DEFB41EC100B10BD69
:1051D000000000000000001002E008C8121F08C113
:1051E000002AFAD170477047002001E001C1121F68
:1051F000002AFBD170470000014908607047000099
:10520000D000002010B5002A06DA22F00042D21D9C
:1052100022F00703102203E0D21C22F003030C2229
:1052200013B19C188C4201D9012010BD02440144E5
:105230008360C0E90021C91AD018884202D81060E2
:105240000246F9E70020106010BD10B541EC100BCC
:10525000FEF74AFE51EC100B10BD00000848006834
:10526000C0010BD507480068C00707D00548803843
:105270000068002802DA0449012008707047000025
:10528000FCED00E0800E00E0C60000204FF0604220
:10529000D36F002BFCD0C36AD367D36F002BFCD035
:1052A000C07840EA0120A2F87C0070474FF06041CE
:1052B000CA6F002AFCD081F87C00704741EC100BCB
:1052C00082B010EE900A8DED000B20F000400190AE
:1052D0009DED000B02B051EC100B704770B504004F
:1052E0000D4603D012B92078012801D0802070BD6E
:1052F000204600F017FB28B12946204600F040F870
:10530000002070BD812070BD0246084810B500EB3A
:10531000810050F8040C002806D0114600F0E0FC93
:10532000BDE8104000F0CCBC10BD000054280010B7
:1053300010B504468089002821D0608904EB8000E4
:10534000006908606078022805D10021204600F03D
:10535000C7FC00F0B5FC04F10C0000BFD0E85F1FF3
:10536000491EC0E8521F002AF8D16089401C80B253
:105370006081E189884201D100206081042010BD54
:1053800010B500F0ADFCBDE8104000F099BC000085
:10539000EFF3058109B182207047DFF808C000DF14
:1053A00070470000CB620008EFF305820AB182204B
:1053B0007047EFF31482144B12F0030206D0012A57
:1053C0001BD0022A11D0032A19D113E0EFF308826F
:1053D00082F309881A78D2070AD0022282F314884D
:1053E000BFF34F8FBFF36F8F09E01A78D20706D152
:1053F0000322F3E71A78D20701D0FF207047DFF8C5
:105400000CC000DF7047000088660008E1620008F9
:105410002DE90E40EFF30582B2B102004FF080009B
:1054200000D021B10090DDE9011203B000BD117878
:105430000129F7D101A91046FFF77AFF042801D00E
:105440000020EFE71020EDE7DFF804C000DFECE715
:10545000D9630008EFF3058109B100207047DFF838
:1054600008C000DF7047000013640008EFF30581F7
:1054700009B182207047DFF808C000DF70470000E4
:105480002F640008EFF305820AB182207047DFF82D
:1054900008C000DF70470000516400082DE970402B
:1054A000EFF3058272B10C4600F0F4FD4FF00045B9
:1054B00030B1210C04D1058BC178A0B2FFF724FFD5
:1054C000284670BDDFF804C000DF70BD87640008A7
:1054D000EFF305830BB182207047DFF808C000DFCF
:1054E00070470000AD640008EFF305820AB10020A8
:1054F0007047DFF808C000DF704700000165000852
:10550000DFF80CC000DFDFF80CC000DFFEE70000B2
:10551000716500088D650008DFF804C000DF704782
:10552000C5650008EFF305820AB182207047DFF8F5
:1055300008C000DF70470000DD650008094C4FF02F
:10554000FF3529462068FFF763FF02460846102A08
:10555000F7D1FFF7E1FF0028F3D002460846904755
:10556000EFE70000200000204FEA000151E8000FA3
:1055700028B1036841E80032002AF7D17047BFF331
:105580002F8F704710B568B161B10B3121F0030264
:10559000016844680B1A1B1B934205D20846096830
:1055A0000029F5D1002010BD3CB121180368C1E9E4
:1055B0000032016001F1080010BD4260083010BDEA
:1055C00070B50C46002812D04FF6FF71084D884286
:1055D00004D22A680146104600F0AEFB28684470E9
:1055E000044800F025F9BDE8704000F081BC70BDB2
:1055F000B8000020DC0200200F4810B50D494268B9
:105600000E480B680088934204D00A60CB88421E83
:105610001A448A808A8882420AD10020086006489B
:1056200000F006F90146BDE81040034800F0B2BBA7
:1056300010BD0000C8000020DC020020C4000020D3
:1056400070B5194DE86800282CD0A88A401EA882A1
:10565000002621E0A06838B161684160606810B13F
:10566000A16881606660A6600F482146183800F086
:1056700091FBA08AA8826078042804D10B49E08AB3
:1056800009880844A08201206070E068E860E06852
:1056900008B10561E6602661A88A002802D1EC689D
:1056A000002CD7D170BD0000F4020020C4000020FF
:1056B00070B504000FD00D4DA178012628688278BE
:1056C00091420CD900F082FB286846702046BDE864
:1056D000704000F00DBC064800F0AAF8F7E76670CD
:1056E0002146BDE87040024800F054BBB8000020DD
:1056F000DC0200200321FFF763BF000010B5044661
:10570000008B084320836278618B062A18D0052A13
:1057100019D1084217D001EA00026283884320832E
:10572000204600F08DFB01206070628B082120462E
:1057300000F07EFB2146BDE81040034800F02ABB84
:1057400031EA0002EAD010BDDC0200200246154812
:1057500010B500EB810050F8044C002C21D0208BB8
:10576000104320836278618B062A17D0052A18D14E
:10577000084216D001EA0002628388432083204653
:1057800000F05EFB01206070628B0821204600F073
:105790004FFB2046BDE81040FFF78ABF31EA000208
:1057A000EBD010BD5428001003460E4810B5046815
:1057B0008C46208B42B133EA000101D0062009E07B
:1057C00098432083022010BD10EA030201D06283B7
:1057D000F6E70520C1B263836046FFF7F1FE0120C2
:1057E00010BD0000B8000020814202D342688A4206
:1057F00001D80120704750E8002F0A6040E80012ED
:10580000002AF8D10020704768B161B10839002240
:1058100002E00246006830B18842FAD12AB100683D
:105820001060002070470120704700214160F8E7B8
:105830000146406842684A600B780022022B05D07E
:10584000012B03D0032B01D04260704743680BB19A
:105850009960426082607047810700D000207047E5
:1058600070B5044600201546207001226270A170B8
:105870006060A060E0602061A082E082208360839D
:1058800084F82000608C18B90448FFF76DFEA06210
:1058900029462046BDE8704000F01CB820020010E8
:1058A00008B1082901D2012070470144091F0022D4
:1058B00001600A6042601046704700000348002102
:1058C000016003490968C18070470000C8000020DA
:1058D0008066000810B5428C920803D10F4A126806
:1058E000C2F38D02836A03EB8202530700D5121FB5
:1058F000403A4FF08073C2E90E1300234FEA0304CD
:1059000042F823405B1C0E2BFAD3C3691362426238
:10591000C162806A0249016010BD00007C66000817
:10592000A52E5AE2C1898089081A704701220270A7
:10593000002242708270426002814281103982816D
:105940008908C181704700002DE9F0410446407884
:1059500000270E464FF00108012855D004F10C0530
:1059600002282BD0032818D0A089E189884262D26E
:10597000208904EB80000661D5E85F0F401CC5E874
:10598000510F0029F8D12089401C80B22081E18983
:10599000884200D12781BDE8F0810846FFF7E4FD89
:1059A0000600F8D02046FFF743FF0546606800B9BF
:1059B00067703146284600F035FA31E02046FFF79F
:1059C00037FF0646606800B967700021304600F076
:1059D00029FA2189F06904EB81010861D5E85F0F9C
:1059E000401CC5E8510F0029F8D12089401C80B225
:1059F0002081E189884200D1278186F801803046E4
:105A000000F01EFA314611E02046FFF711FF05466F
:105A1000606800B9677032461021284600F008FA25
:105A200085F80180284600F00BFA2946BDE8F041D0
:105A3000034800F0AFB9BDE8F0410320FAF786BD96
:105A4000DC02002070B50446808915460026C8B3E4
:105A5000608904EB8000006908606089401C80B2A6
:105A60006081E189884200D16681607802280AD08D
:105A700014F10C04D4E85F0F401EC4E8510F002954
:105A8000F8D1002070BD2046FFF7D2FE05466068C1
:105A900000B966700021284600F0C4F92189E86940
:105AA00004EB810108612089401C80B22081E189DA
:105AB000884200D12681284600F0C2F92846FFF727
:105AC000F7FDDEE7FFE73DB10A48626801682AB1E9
:105AD000204600F05FF907E0012070BD61600068BA
