:020000040800F2
:1000000088060020250500082D0500082F0500089A
:100010003105000833050008350500080000000020
:1000200000000000000000000000000009020008BD
:100030003905000800000000AD0200080D030008AB
:100040003F0500083F0500083F0500083F05000880
:100050003F0500083F0500086F0900083F0500083C
:100060003F0500083F0500083F0500083F05000860
:100070003F0500083F0500083F0500083F05000850
:100080003F0500083F0500083F0500083F05000840
:100090003F0500083F0500083F0500083F05000830
:1000A0003F0500083F0500083F0500083F05000820
:1000B0003F050008CD0B00083F0500083F0500087C
:1000C0003F0500083F0500083F0500083F05000800
:1000D0003F0500083F0500083F0500083F050008F0
:1000E0003F0500083F0500083F0500083F050008E0
:1000F0003F0500083F0500083F0500083F050008D0
:100100003F0500083F0500083F0500083F050008BF
:100110003F0500083F0500083F0500083F050008AF
:100120003F0500083F0500083F0500083F0500089F
:100130003F0500083F0500083F0500083F0500088F
:100140003F0500083F0500083F0500083F0500087F
:100150003F0500083F0500083F0500083F0500086F
:100160003F0500083F0500083F0500083F0500085F
:100170003F0500083F0500083F0500083F0500084F
:100180003F0500083F050008DFF814D003F010FE1B
:100190000021024805F004FDFEE70000186C00088D
:1001A0008806002080F309887047684680F3098834
:1001B00004480078C00714BF0220032080F314888D
:1001C00070470000E06B0008DFF818C0EFF305830C
:1001D0001B0618BF6047EFF31483DB0708BF6047B7
:1001E00000DF7047015D0008DFF818C0EFF30583FA
:1001F0001B0618BF6047EFF31483DB0708BF604797
:1002000000DF7047815F0008EFF30980816911F812
:10021000021C002933D190E80F1010B5E047BDE86B
:100220001040EFF3098C8CE807001D4B93E80600A3
:10023000914208BF704781B11EF0100F06BF2CED30
:10024000108A0120002081F820002CE9F00FC1F86D
:1002500024C00CB406F062F90CBC1A60D2F824C0B9
:10026000BCE8F00F92F8200000281ABFBCEC108AFE
:100270006FF0120E6FF0020E8CF30988704710B504
:10028000084A1268914209D8074C54F8214090E876
:100290000F10A047EFF3098C8CE80F0010BD000091
:1002A00008010020D43D0008D43D000810B506F038
:1002B0000DF8BDE81040174B93E80600914208BFC7
:1002C0007047EFF3098C1EF0100F06BF2CED108A5B
:1002D0000120002081F820002CE9F00FC1F824C093
:1002E0000CB406F01BF90CBC1A60D2F824C0BCE8B0
:1002F000F00F92F8200000281ABFBCEC108A6FF0B3
:10030000120E6FF0020E8CF30988704710B506F0DC
:10031000CBF9CEE7080100200CB500200190009039
:100320007548006840F480307349086000BF724827
:10033000006800F4003000900198401C0190009883
:1003400018B90198B0F5A06FF1D16B48006810F4AE
:10035000003F02D00120009001E0002000900098B2
:10036000012845D164484030006840F0805062491F
:10037000403108606148006840F480405F4908608F
:100380005D48083000685C4908310860084600682C
:1003900040F4004008600846006840F4A05008603F
:1003A0005748091F0860081F006840F08070091F47
:1003B000086000BF5048006810F0007FFAD040F29B
:1003C0000560504908604C480830006820F0030080
:1003D0004949083108600846006840F0020008609A
:1003E00000BF45480830006800F00C000828F8D12C
:1003F0000CBD10B54448006840F4700042490860E4
:100400003D48006840F001003B49086000203A493F
:1004100008310860384800683C490840364908609F
:100420003B48091D0860081F006820F48020091F50
:100430000860002030490C310860FFF76DFF4FF075
:10044000006031498039086010BD70B5002000227D
:10045000022300240221284D08352D6805F00C00E8
:1004600020B1042806D0082834D107E0294D2A4EAF
:10047000356033E0294D284E35602FE01E4D2D1D8F
:100480002D68C5F380541C4D2D1D2D6805F03F01CE
:1004900054B1224DB5FBF1F5174E361D3668C6F343
:1004A000881605FB06F209E01A4DB5FBF1F5124E70
:1004B000361D3668C6F3881605FB06F20E4D2D1D57
:1004C0002D68C5F301456D1C6B00B2FBF3F5124EB0
:1004D000356003E00F4D104E356000BF00BF064D84
:1004E00008352D68C5F303150D4E705D0A4D2D6856
:1004F000C540094E356070BD0038024000700040B4
:1005000008544007003C024088ED00E0FFFFF6FE83
:10051000103000240024F4000000002000127A00B3
:10052000040000200648804706480047FEE7FEE733
:10053000FEE7FEE7FEE7FEE7FEE7FEE7FEE7FEE793
:10054000F30300088901000800BFFEE700BFFEE7D3
:1005500000203849086000F0CEFC00F092FB00F06B
:1005600089FA00F043FB0021334805F095FB33493D
:1005700008600021324805F08FFB324908600021F5
:10058000314805F089FB3149086003E04FF0FF3046
:1005900005F0FAFAFAE710E04FF47A7005F0F4FA91
:1005A0004FF480502A4908804FF47A7005F0ECFA35
:1005B0004FF480502649891C0880EDE710B50446A9
:1005C00000F04FF800F09CF910BD10B5044600F0A3
:1005D0001DFE10BD10B5044600F0D8FD10BD10B5CD
:1005E000044600F058FD10BD00F085FC20E000F04E
:1005F00099FDE8B10F48006818B901200D4908605D
:1006000016E00C480068012803D100200949086061
:100610000EE008480068022803D10320054908605D
:1006200006E004480068032802D10220014908605E
:10063000DDE7000074000020686C000868000020FE
:10064000286C000858000020386C00085C0000206E
:10065000180C024008B502223921684602F039FF21
:1006600008BD00B5B5B007202C90FF202B902A9034
:10067000299007208DF8BA0000208DF8BC008DF875
:10068000BB008DF8B90040208DF8B8002EA802F00C
:100690000AFF40208DF8B40015208DF8B500002029
:1006A0008DF8B6002DA802F052FF7F20289001217E
:1006B000102001F045FC00208DF8C4008DF8C70023
:1006C0000120309030A9AF4801F0F4F90122222135
:1006D0002CA802F038FE01223C212BA802F033FEA8
:1006E00001223B212AA802F02EFE01223D2129A849
:1006F00002F029FE01223E2128A802F024FE012159
:10070000880301F061FC0021042001F05FFF01205B
:10071000339000208DF8D00008208DF8D100012002
:100720008DF8D20033A801F0D7F806208DF8C80064
:1007300001208DF8C9008DF8CA008DF8CB0032A8D1
:1007400000F017FEFFF786FF9FED8F0A8F4880EDC0
:10075000000A9FED8F0A80ED010A9FED8E0A80ED61
:10076000020A9FED8D0A80ED030A9FED8C0A80ED51
:10077000040A9FED8B0A80ED050A9FED8A0A80ED41
:10078000060A9FED890A80ED070A9FED880A80ED31
:10079000080A9FED870A80ED090A9FED860A80ED21
:1007A0000A0A9FED850A80ED0B0A1BA800F0CFFD19
:1007B0000EA800F0CCFD01A800F0C9FD35B000BDC9
:1007C00030B50B46002122E0002440F821400022F1
:1007D0001AE001EB41046D4D05EB840404EB820447
:1007E000D4ED000A53F8224000EE104AB8EEC00AD9
:1007F00020EE800ABDEEC00A10EE104A50F82150DB
:100800002C4440F82140521C042AE2DB491C0329F5
:10081000DADB0468083404604468113C446084688E
:10082000123C846030BD1FB50446684602F0F7FEF6
:100830004FF47A700390FFF70DFF69462046FFF7EB
:10084000BFFF1FBD70B52DED048B04460D46164647
:1008500000EE106AB8EEC01A00EE105AF8EEC00AA8
:1008600000EE104AB8EEC00A00F082FAB0EE409AEC
:10087000F0EE609A9FED510B53EC102B51EC190BDD
:1008800002F0B5FF41EC100BB0EE408AF0EE608A4A
:1008900051EC180B03F0CFF800EE100ABDEC048BFE
:1008A00070BD70B52DED048B04460D46164600EE66
:1008B000106AB8EEC01A00EE105AF8EEC00A00EE48
:1008C000104AB8EEC00A00F0A5FAB0EE409AF0EE79
:1008D000609A9FED3A0B53EC102B51EC190B02F080
:1008E00086FF41EC100BB0EE408AF0EE608A51ECCE
:1008F000180B03F0A0F800EE100ABDEC048B70BDDD
:100900002DED028B86B031E00121084605F0B8F9E3
:100910008DE8070003A8FFF786FF2A48039900F037
:10092000F5FC2948049900F0F1FC2848059900F0ED
:10093000EDFC27480068C8B9244BDA6A224BD96A13
:10094000204BD86AFFF77EFFB0EE408A1F4BDA6A71
:100950001D4BD96A1B4BD86AFFF7A3FFF0EE408A04
:10096000F0EE680AB0EE480A00F0C9F8CCE710B51E
:10097000012001F017F820B101201649088001F08C
:1009800022F810BD001002409621863F2801002069
:1009900075029ABC17B7D13B5839B43B1826833F30
:1009A0002E9020BC304CA6BC3B70CEBB9A99813FA8
:1009B00039D6453DDC4683BDCDCC4CBCAA9F9622A2
:1009C000DCA54C40580100208C010020C001002013
:1009D0007400002070000020D0ED0A0AB0F9301039
:1009E00000EB810191ED001A70EEC10AC0ED0A0A18
:1009F000B0F9301000EB810181ED000AD0ED0A0A58
:100A0000B0F9301000EB810191ED001A70EE810A0F
:100A1000C0ED0A0A018E491C09B20186018E0A291D
:100A200001D100210186D0ED0A0AB2EE041AC0EE0F
:100A3000811AC0ED0B1A7047002106E09FED070AEE
:100A400000EB810282ED000A491C0A29F6DB9FEDCA
:100A5000030A80ED0A0A00220286704700000000A7
:100A600010B5574C2060241D2160241D2260241DD8
:100A7000236010BD1CB50121082001F061FA4FF47C
:100A80007840009002208DF8040003208DF80500C6
:100A900000208DF8060001208DF8070069464948BE
:100AA00001F008F802220B21464801F08EF80222DC
:100AB0000C21444801F089F802220D21414801F03F
:100AC00084F802220E213F4801F07FF802220F2114
:100AD0003C4801F07AF800231A4619461846FFF7F9
:100AE000BFFF1CBDF0EE400AF5EEC00AF1EE10FAB1
:100AF00002D2B1EE600A7047B0EE600AFBE71FB5A4
:100B0000F0EE401AB0EE601AB0EE080AB4EEC01A69
:100B1000F1EE10FA0ADD002000909FED2B0A21EE85
:100B2000000ABDEEC00A8DED020A18E0B0EE080A18
:100B3000B4EEC01AF1EE10FA0ED2B0EE410AFFF791
:100B4000D1FFDFED210A20EE200ABDEEC00A8DEDB7
:100B5000000A0020029002E0002000900290B0EE17
:100B6000080AF4EEC01AF1EE10FA0ADD0020019036
:100B70009FED150A21EE800ABDEEC00A8DED030A35
:100B800018E0B0EE080AF4EEC01AF1EE10FA0ED238
:100B9000B0EE610AFFF7A6FFDFED0B0A20EE200A98
:100BA000BDEEC00A8DED010A0020039002E0002096
:100BB000019003909DE80F00FFF752FF1FBD00005A
:100BC00034080040000C02400000364410B50121FA
:100BD000614802F098FA40B101216048006805F0D0
:100BE00035F801215C4802F09FFA10BD1FB50024C2
:100BF0000121022001F0D7F91D208DF80C00002002
:100C00008DF80D0001208DF80E008DF80F0003A85F
:100C100000F0AFFB4FF6FF7001900020ADF8000030
:100C2000ADF8080069464C4801F0B5FD32240122B8
:100C30002146494801F0ECFD01221146464802F0E8
:100C40004BFA0121444801F02FFE1FBD1CB50121C4
:100C5000022001F075F9684600F074FF4FF400605F
:100C6000009001208DF8040003208DF8050000207D
:100C70008DF806008DF807006946394800F01AFF24
:100C80001CBD10B58AB00121042001F08CF91E2092
:100C90008DF8100000208DF8110001208DF8120051
:100CA0008DF8130004A800F064FB4FF6FF7002906B
:100CB0000020ADF80400ADF80C00ADF8060001A965
:100CC000284801F068FD2848006840082749B0FB23
:100CD000F1F0401E84B201222146224801F098FD25
:100CE0007020ADF814000120ADF816000420ADF816
:100CF00018004AF2010007900220ADF82000002001
:100D0000ADF822004FF48070ADF824000020ADF85B
:100D1000260005A9134801F0D3FD46F6AD20079043
:100D200005A9104801F005FE43F25650079005A9A9
:100D30000C4801F04BFE41F6AA20079005A909488E
:100D400001F0AAFE0121074801F0AEFD012105488E
:100D500002F09BF90AB010BD0004004078000020AA
:100D6000000402400008004000000020808D5B006D
:100D700010B52DED108BB0EE408AF0EE608AB0EE2B
:100D8000419A19EE100A02F043FE41EC100BB0EE4E
:100D900040EAF0EE60EA9FED481B03F0A9FAB0EEDE
:100DA00040CAF0EE60CA18EE900A02F031FE41EC43
:100DB000100BB0EE40EAF0EE60EA9FED3F1B03F04F
:100DC00097FAB0EE40DAF0EE60DA53EC1C2B51ECFF
:100DD0001D0B02F065FC41EC100BB0EE40BAF0EEDA
:100DE00060BA04F0CDF8B0EE40AAF0EE60AA18EEBA
:100DF000100A02F00DFE41EC100BB0EE40FAF0EEDE
:100E000060FAB0EE4A1AF0EE6A1A03F081F9BDEC0E
:100E1000108B10BD10B52DED108BB0EE408AF0EEAA
:100E2000608AB0EE419A19EE100A02F0F1FD41EC31
:100E3000100BB0EE40EAF0EE60EA9FED1F1B03F0EE
:100E400057FAB0EE40CAF0EE60CA18EE100A02F08F
:100E5000DFFD41EC100BB0EE40EAF0EE60EA9FEDF2
:100E6000161B03F045FAB0EE40DAF0EE60DA53EC10
:100E70001C2B51EC1D0B02F013FC41EC100BB0EEDF
:100E800040BAF0EE60BA04F07BF8B0EE40AAF0EEA3
:100E900060AA18EE900A02F0BBFD41EC100BB0EE18
:100EA00040FAF0EE60FAB0EE4A1AF0EE6A1A03F079
:100EB0002FF9BDEC108B10BD0000000000000040B9
:100EC0001CB50121082001F03BF8684600F03AFE0D
:100ED0004FF47040009001208DF8040003208DF83D
:100EE000050000208DF806008DF8070069469B4834
:100EF00000F0E0FD1CBD1CB50121084601F020F802
:100F0000684600F01FFE0120009000208DF80400CC
:100F100003208DF8050000208DF806008DF80700ED
:100F200069468F4800F0C6FD1CBD00B58BB001219D
:100F3000080201F049F8002001900290039004900B
:100F400001A800F0BDFA002005908DF818008DF87A
:100F500019000790099001208DF8280005A9814803
:100F600000F07FFA01217F4800F0C6FA012000F06E
:100F7000E1FA0723012210217A4800F0FDFA01214D
:100F8000784800F06FFB774800F052FB7648FFF797
:100F900053FD0BB000BD10B52DED048BB0EE408AB3
:100FA00018EE100A02F034FD41EC100BB0EE409A3E
:100FB000F0EE609A53EC192B6CA002F00DFF6C4818
:100FC00090ED000A38EE400A6A48D0ED000AB4EE0F
:100FD000E00AF1EE10FA27DB6748006828B9664896
:100FE0000068401C644908601AE0634800680128F2
:100FF00005D161480068401C5F49086010E05E4808
:101000000068022805D15C480068401C5A49086005
:1010100006E059480068032802D1002056490860BC
:10102000534880ED008A33E0514890ED000A30EEDD
:10103000480A5048D0ED000AB4EEE00AF1EE10FA8A
:1010400026DB4D48006818B903204B4908601CE0B6
:1010500049480068012805D147480068401E4649B4
:10106000086012E044480068022805D14248006840
:10107000401E4149086008E03F480068032804D149
:101080003D480068401E3C490860394880ED008AB0
:10109000BDEC048B10BD2DED048B9FED380AB0EE36
:1010A000409A2DE000BF364800680028FBD00020A1
:1010B000334908602B4800F0F7FA00EE100AB8EE4A
:1010C000400ADFED300A80EE201AB0EE080A21EE69
:1010D000008A2D4890ED000A78EE400A80EE890AD9
:1010E000F3EE090A70EE208AB0EE680A1E48FFF798
:1010F00073FC1D48D0ED0B0AB0EE600AFFF74BFF02
:10110000D0E71D48006830B1012805D0022804D07E
:10111000032804D102E003E002E001E000E000BFA8
:1011200000BF704710B501210D4800F025FD0446B1
:1011300094B1C82004F028FD0121094800F01CFDED
:1011400004460CB9012010BDC82004F01DFD0CB9E7
:101150000120F8E70020F6E70020F4E7000C024049
:101160000000024000200140F401002025660A0032
:1011700098000020900000209C0000200AD7233B0C
:101180009400002000F07F458C00002034E000BF78
:101190001A4800680028FBD0002018490860184849
:1011A000006818490968884206DB01224FF4704143
:1011B000154800F0FFFC05E000224FF47041124892
:1011C00000F0F8FC0F480068401C0E490860084613
:1011D000006840F2DC51884207DD002009490860C0
:1011E00007480068401C0649086005480068C82890
:1011F00002D1002002490860C9E70000B0000020C9
:10120000A8000020AC000020000C02402DED068B51
:1012100084B066E00121084604F032FD01AB07C34B
:101220003048006802F0C4FB41EC100BB0EE40AA5D
:10123000F0EE60AA9FED2C1B03F05AF8B0EE409A36
:10124000F0EE609A9FED2A0B53EC102B51EC190B2A
:1012500002F03FFB41EC100BB0EE408AF0EE608AEA
:1012600051EC180B02F0B5FB2349086008460068F2
:1012700040F28F2148432149086021480068012835
:1012800006D108460368026801680068FFF7E8FBBA
:101290001448006848B91B4800680D2805DA194849
:1012A0000068401C174908601BE00E48006864286D
:1012B00008DA0C480068401C0A49086000201149FF
:1012C00008600EE0104800680D2805D1002005498F
:1012D00008600D49086004E00B480068401C0A499A
:1012E000086097E7C00000200000000000000040F8
:1012F0000000000000005940D0000020CC00002079
:1013000074000020C8000020C4000020B0F9303074
:1013100050F82330826AD21A8262B0F9302040F845
:101320002210B0F9303050F82330826A1A448262B9
:10133000028E521C12B20286028E0A2A01D10022AB
:1013400002860A23826A92FBF3F2C262704700218E
:1013500003E0002240F82120491C0A29F9DB002281
:10136000826202867047000033490143334A1160AC
:10137000704770B5002100230F22C47824B32F4C8E
:10138000246804F4E064C4F5E064C4F30721C1F107
:101390000404E3B20A4144789C40E1B284781440EA
:1013A00021430C07210E264C05786155047804F082
:1013B0001F050124AC4005786D114FF0E02606EBC7
:1013C0008505C5F8004109E0047804F01F040125F3
:1013D000A5401C4C0678761144F8265070BD1A4A78
:1013E0000A400243154B1B1F1A60704739B1134A5C
:1013F000121D12680243114B1B1D1A6006E00F4AB2
:10140000121D126882430D4B1B1D1A607047042881
:1014100008D14FF0E021096941F004014FF0E022CA
:10142000116107E04FF0E021096921F004014FF05C
:10143000E0221161704700000000FA050CED00E0A9
:1014400000E400E080E100E080FFFF1F10B5012113
:10145000080200F021FE00214FF4807000F01CFE15
:1014600010BD30B50246002000235068F84C2040E3
:101470000D790C6844EA0524204350609068F54CCF
:101480002040D1E903542C438D682C434D7944EA24
:10149000450420439060D06A20F470000C7D641EE7
:1014A000E4B2234340EA0350D06230BD0021016022
:1014B000017141718160C160016101210175704755
:1014C0000021E54A1168E54A01EA0201D0E900235A
:1014D00042EA0302836842EA0302C36842EA030263
:1014E00042EA0101DE4AC2F804137047002101609C
:1014F00041608160C160704721B1826842F00102A1
:10150000826003E0826822F00102826070470A462E
:1015100000214168D34B194011434160704741623B
:10152000826270470A460021416821F01F01114381
:101530004160704738B1C849096841F40001C84AA0
:10154000C2F8041306E0C449096821F40001C44A42
:10155000C2F80413704738B1BF49096841F48001EB
:10156000BF4AC2F8041306E0BB49096821F48001B0
:10157000BB4AC2F804137047F0B504460D4600207C
:101580000021092D11DDE068A5F10A0606EB4607EA
:10159000072606FA07F18843A5F10A0606EB460678
:1015A00003FA06F10843E0600CE0206905EB45070B
:1015B000072606FA07F1884305EB450603FA06F10C
:1015C00008432061072A0FDA606B561E06EB860778
:1015D0001F2606FA07F18843561E06EB860605FA13
:1015E00006F10843606322E00D2A0FDA206BD61F54
:1015F00006EB86071F2606FA07F18843D61F06EB7F
:10160000860605FA06F10843206310E0E06AA2F1BD
:101610000D0606EB86071F2606FA07F18843A2F19E
:101620000D0606EB860605FA06F10843E062F0BDFA
:10163000816841F0804181607047014600208A68DE
:1016400012F4800F01D0012000E00020704721B18A
:10165000826842F48062826003E0826822F48062E1
:101660008260704721B1826842F00202826003E02A
:10167000826822F002028260704710B50A4600219B
:101680000023416821F46041531E41EA4331416027
:1016900010BD21B1426842F40062426003E042683A
:1016A00022F40062426070470146C86C80B2704705
:1016B0006D480068704721B1826842F48072826090
:1016C00003E0826822F480728260704721B18268F0
:1016D00042F40072826003E0826822F40072826049
:1016E000704738B15C49096841F400515C4AC2F85E
:1016F000041306E05849096821F40051584AC2F819
:1017000004137047F0B50446154600200022002659
:10171000092911DDE068A1F10A0707EB470C07274B
:1017200007FA0CF29043A1F10A0707EB470703FA07
:1017300007F21043E0600CE0206901EB410C072741
:1017400007FA0CF2904301EB410703FA07F210434A
:101750002061A06BC0F30156EF1C06F1010CA7EB52
:101760000C0707EB870C1F2707FA0CF29043EF1CBE
:1017700006F1010CA7EB0C0707EB870701FA07F24C
:101780001043A063F0BD10B50A4600210023816B11
:1017900021F44011531E41EA0351816310BD08B585
:1017A000002300930090009B0B440093009B1A6061
:1017B00008BD0A460021816821F47021114381602F
:1017C00070470A460021816821F44011114381606D
:1017D0007047816841F480018160704701460020B4
:1017E0008A6812F4800F01D0012000E000207047C9
:1017F00021B1426842F48062426003E0426822F410
:1018000080624260704721B1426842F48052426077
:1018100003E0426822F480524260704708B50246F5
:1018200000200090009201F12800009B18440090D5
:101830000098006880B208BD10B50B460021D9B2EF
:10184000012404FA01F18AB144680C43446010E0B9
:10185000FFFEFFFCFDF7FFC004230140E030FCFF6A
:1018600000200140FFFD3FFF0823014044688C43F6
:10187000446010BD0246002013680B4201D00120D5
:1018800000E000207047CA430260704770B502460E
:101890000020002300240B12556801268E4005EA23
:1018A000060415681D4202D00CB1012000E00020A2
:1018B00070BD00220A12D3430360704700204449E0
:1018C0000860091D0860091D0860091D086041487D
:1018D0003F4914310860704700213D498279002A50
:1018E0003AD00A46126803689A430B461A600A1DEA
:1018F000126803689A430B1D1A60027911440A6842
:1019000003681A430A60324A0832126803689A432D
:101910002F4B08331A601A1D126803689A432C4B28
:101920000C331A604279102A0ED11A1F126803680C
:101930001A43274B08331A601A1D126803681A43AA
:10194000234B0C331A600DE02149427911440A6897
:1019500003681A430A6005E0027911440A680368C3
:101960009A430A6070470021016001710C214171A6
:101970000021817170471649103109680143144AEA
:1019800010321160704701460020114A143212686B
:101990000A4201D0012000E0002070470C491431B8
:1019A00008607047014600200022094B1B6803EACB
:1019B0000102074B14331B680B4202D00AB101200D
:1019C00000E00020704702491431086070470000B1
:1019D000003C0140FFFF7F0010B504468C48844264
:1019E00008D10121084600F000FB0021012000F091
:1019F000FCFA5EE08748844208D10121022000F011
:101A0000F4FA0021022000F0F0FA52E08248844209
:101A100008D10121042000F0E8FA0021042000F0A0
:101A2000E4FA46E07D48844208D10121082000F014
:101A3000DCFA0021082000F0D8FA3AE07848844225
:101A400008D10121102000F0D0FA0021102000F070
:101A5000CCFA2EE07348844208D10121202000F006
:101A6000C4FA0021202000F0C0FA22E06E4884422F
:101A700008D10121402000F0B8FA0021402000F0F8
:101A8000B4FA16E06948844208D10121802000F0B0
:101A9000ACFA0021802000F0A8FA0AE064488442F1
:101AA00007D10121801500F0A0FA0021A01500F057
:101AB0009CFA10BDF0B50A4600210023002400BFA7
:101AC0003DE0012505FA01F3156805EA03049C428F
:101AD00034D105684F000326BE40B5430560157933
:101AE0004E00B5400668354305601579012D02D0DA
:101AF0001579022D16D185684F000326BE40B543E7
:101B0000856055794E00B5408668354385604568E7
:101B100001268E40B5434560456896798E40B6B241
:101B200035434560C5684F000326BE40B543C560D8
:101B3000D5794E00B540C6683543C560491C1029AB
:101B4000BFD3F0BD4FF6FF710160002101714171FB
:101B50008171C171704708B54FF480320092009ACC
:101B60000A430092009AC261C161009AC261C269CF
:101B70000092C269009208BD0246002013690B4220
:101B800001D0012000E0002070470146086980B2C2
:101B900070470246002053690B4201D0012000E04B
:101BA000002070470146486980B270470183704742
:101BB000418370470AB1018300E04183704741616E
:101BC000704742694A4042617047F0B500230024E3
:101BD0004D07ED0E02FA05F3CE1000F1200555F881
:101BE00026504E07F70E0F26BE40B543CF1000F12A
:101BF000200646F82750CE1000F1200555F8265053
:101C000045EA0304CE1000F1200545F82640F0BD5A
:101C1000000002400004024000080240000C0240A4
:101C2000001002400014024000180240001C024054
:101C300000200240FA48006840F00100F8490860BE
:101C40000020F74908310860F5480068F549084068
:101C5000F3490860F448091D0860081F006820F473
:101C60008020091F08600020ED490C310860704792
:101C70000021EB4A921C117011460870704710B594
:101C800001460022002300204A11012A02D1E44C1F
:101C9000236808E0022A03D1E14C7034236802E093
:101CA000DF4C7434236801F01F02012494401C426D
:101CB00001D0012000E0002010BD38B500200090C8
:101CC0000024002500BF3120FFF7D9FF054600980A
:101CD000401C00900098B0F5A06F01D0002DF2D00C
:101CE0003120FFF7CCFF08B1012400E0002420469A
:101CF00038BD01460020CA4A106820F0F80040EACA
:101D0000C10010607047C949086070470021C44A8B
:101D1000703211701170012802D004280AD104E039
:101D20000121BF4A7032117005E00521BC4A7032B2
:101D3000117000E000BF00BF7047BD4908607047E8
:101D400070B5049C41EA82150126C6EB530645EAAC
:101D50000645054345EA0465B14E361D356070BD44
:101D6000B24908667047820142EA0172AC4B843383
:101D70001A607047AD4988667047AC49C8647047BF
:101D800002460020A64B0833186820F0EC6042EAB7
:101D900001031843A24B0833186070470246002025
:101DA0009F4B0833186820F0784042EA010318433B
:101DB0009B4B08331860704701460020984A083250
:101DC000106820F003000843106070479448083002
:101DD000006800F00C00704701460020904A08326D
:101DE000106820F0F00008431060704701460020A2
:101DF0008B4A0832106820F4E050084310607047A6
:101E000001460020864A0832106820F4604040EA0B
:101E1000C10010607047F0B50021002200240225A7
:101E2000002602237E4F08373F6807F00C0121B1DE
:101E3000042905D0082937D105E07E4F076036E038
:101E40007D4F076033E0764F3F1D3F68C7F38056F4
:101E5000734F3F1D3F6807F03F036EB1764FB7FBEE
:101E6000F3F7DFF8BCC10CF1040CDCF800C0CCF3D4
:101E7000881C07FB0CF40CE06E4FB7FBF3F7DFF8A0
:101E8000A0C10CF1040CDCF800C0CCF3881C07FBEB
:101E90000CF4634F3F1D3F68C7F301477F1C7D0073
:101EA000B4FBF5F7076002E0624F076000BF00BFB8
:101EB0005B4F08373F6807F0F00109095F4F7A5C14
:101EC0000768D7404760564F08373F6807F4E0512E
:101ED000890A5A4F7A5C4768D7408760504F083765
:101EE0003F6807F46041490B544F7A5C4768D7401C
:101EF000C760F0BD002100F44072B2F5407F0AD106
:101F0000474A0832116821F4F8114D4A0240114342
:101F1000434A08321160424A70321268C0F30B0320
:101F20001A433F4B70331A60704741494439086087
:101F300070473F4940390860704742490860704720
:101F400039B1374A303212680243354B30331A60A8
:101F500006E0334A303212688243314B30331A6024
:101F6000704739B12E4A3432126802432C4B343355
:101F70001A6006E02A4A343212688243284B34330E
:101F80001A60704739B1264A383212680243244B2E
:101F900038331A6006E0224A383212688243204BF6
:101FA00038331A60704739B11D4A40321268024313
:101FB0001B4B40331A6006E0194A403212688243D4
:101FC000174B40331A60704739B1154A44321268D2
:101FD0000243134B44331A6006E0114A443212683C
:101FE00082430F4B44331A60704739B10C4A1032A8
:101FF000126802430A4B10331A6006E0084A103296
:1020000012688243064B10331A607047E1B1044AEC
:10201000143212680243024B14331A6019E00000B4
:1020200000380240FFFFF6FE103000240000474257
:10203000800E47420024F40000127A00F0000020D5
:10204000FFFCFF0F5C0147425B4A126882435A4B18
:102050001A60704739B1584A121D12680243564B34
:102060001B1D1A6006E0544A121D12688243524B2F
:102070001B1D1A60704739B14F4A0C321268024377
:102080004D4B0C331A6006E04B4A0C321268824307
:10209000494B0C331A60704739B1474A1032126805
:1020A0000243454B10331A6006E0434A103212686F
:1020B0008243414B10331A60704739B13E4A3C327B
:1020C000126802433C4B3C331A6006E03A4A3C3209
:1020D00012688243384B3C331A60704739B1364A34
:1020E000403212680243344B40331A6006E0324AF1
:1020F000403212688243304B40331A60704739B126
:102100002D4A4432126802432B4B44331A6006E0D6
:10211000294A443212688243274B44331A6070477D
:1021200039B1254A4C3212680243234B4C331A60B2
:1021300006E0214A4C32126882431F4B4C331A602E
:10214000704739B11C4A5032126802431A4B50335F
:102150001A6006E0184A503212688243164B503318
:102160001A60704739B1144AD21F12780243124BD9
:10217000DB1F1A7006E0104AD21F127882430E4B02
:10218000DB1F1A7070470C486030006840F08070A8
:10219000094960310860704701460020064A083A44
:1021A00012680A4201D0012000E000207047024975
:1021B000891F0870704700001438024010B50446AB
:1021C000F648844208D101218014FFF765FF002101
:1021D000A014FFF761FF16E0F148844208D1012105
:1021E0000014FFF748FF00212014FFF744FF0AE026
:1021F000EC48844207D10121C013FFF73CFF0021C6
:10220000E013FFF738FF10BD10B50022028802F47A
:1022100041520B884C8823438C882343CC8823432A
:102220000C8923434C8923438C892343CC89234342
:102230001A430280838B4FF2FF74234083830B8AFF
:10224000038210BD2DE9F04F002502230024012751
:1022500000220026944690469146B0F81CA04FF20A
:10226000400B0AEA0B0AA0F81CA04FF0020AA0F8E3
:1022700020A0858BD1F808A0BAF1020F01D100BFD0
:102280006AE0B1F804A0BAF1000F01D1012700E023
:102290000227DFF814A3DAF800A01AF4000F09D01F
:1022A000DFF804A3DAF800A02AF4000ADFF8F8B295
:1022B000CBF800A0DFF8F0A20AF17C0ADAF800A05F
:1022C000CAF38818DFF8E0A20AF17C0ADAF800A065
:1022D000CAF30279DFF8D0A2AAF1040ADAF800A062
:1022E0000AF03F0CDFF8C4A2BAFBFCFA0AFB08FABA
:1022F000BAFBF9F6B1F806A0BAF5007F0ED14FEAA5
:10230000162A0AEB8A0A4FEA4A0AD1F808B0BAFB41
:10231000FBFA0AF1050A1FFA8AF20FE04FEA471AA0
:10232000B6FBFAFA0AEB8A0A4FEA4A0AD1F808B071
:10233000BAFBFBFA0AF1050A1FFA8AF24FF00A0A01
:10234000B2FBFAF202F00104A2EB040ACAF34F0353
:102350004FF6FF7A0AEA0424022B01DBFF2B01DD92
:1023600002230024B1F806A04AEA040A4AEA030A52
:10237000A0F820A0B1F804A0B1F80CB04AEA0B0A0A
:10238000B1F802B04AEA0B0AB1F800B04AEA0B0A07
:102390004AF4006A4AEA05058583BDE8F08F00210A
:1023A000018041808180C180018141818181C18121
:1023B0000721018270470021018041808180C18016
:1023C0000221816000218181704721B1028842F0A1
:1023D0004002028004E002884FF6BF731A40028078
:1023E000704721B1828B42F48062828304E0828B49
:1023F0004FF6FF331A408283704702884FF2FF7313
:102400001A40028002880A4302807047B1F5804F6B
:1024100004D1028842F48042028004E002884BF634
:10242000FF731A4002807047A1F57E42FF3A04D044
:10243000028842F48072028004E002884FF6FF6353
:102440001A400280704721B1828842F004028280E3
:1024500004E082884FF6FB731A408280704721B1F6
:10246000828842F01002828004E082884FF6EF7387
:102470001A408280704730B500220023848B4FF2CF
:1024800040052C40848302240484828B0C88B4F59C
:10249000007F01D00C8814B94FF4807308E00C88D9
:1024A000B4F5407F03D00C88B4F5807F00D10023C1
:1024B0008C888D892C434D882C431C4344F4006444
:1024C0002243828330BD01468889704781817047ED
:1024D00021B1028842F40052028004E002884DF6E5
:1024E000FF731A4002807047018841F480510180D7
:1024F000704702460020012901D0108B00E0908A2D
:1025000070470146088A70471AB183880B4383805D
:1025100002E083888B438380704730B5002400231A
:102520000C110125A540ABB21AB185881D438580E9
:1025300002E085889D43858030BD024600201389D6
:102540000B4201D0012000E000207047CA43028105
:102550007047F0B50246002000240023002501F05A
:102560000F070126BE40B4B20B1101269E40B3B244
:10257000968806EA03051689264202D00DB101208D
:1025800000E00020F0BD10B5002201F00F0401238F
:10259000A3409AB2D343038110BD00000030014034
:1025A00000380040003C00400838024000127A0029
:1025B00010B501218803FFF76FFD00214FF4804023
:1025C000FFF76AFD10BD1A490860704730B5002258
:1025D0008B071C0F0F2303FA04F2154B08338C10E2
:1025E00053F824309343124C08348D1044F82530AE
:1025F00023468C1053F824308C07240F00FA04F47F
:1026000023430B4C08348D1044F8253030BD094964
:10261000086070470849086070470020044920316D
:10262000096811F4807F01D0012000E0002070478C
:1026300000380140DC0027420004274210B5044660
:10264000FE48844208D101210846FFF725FD0021FC
:102650000120FFF721FD9DE0B4F1804F08D1012159
:102660000846FFF708FD00210120FFF704FD91E077
:10267000F348844208D101210220FFF7FCFC00212D
:102680000220FFF7F8FC85E0EE48844208D10121E2
:102690000420FFF7F0FC00210420FFF7ECFC79E0B8
:1026A000E948844208D101210820FFF7E4FC002119
:1026B0000820FFF7E0FC6DE0E448844208D10121E6
:1026C0001020FFF7D8FC00211020FFF7D4FC61E0B8
:1026D000DF48844208D101212020FFF7CCFC0021F3
:1026E0002020FFF7C8FC55E0DA48844208D10121D8
:1026F0000220FFF7D1FC00210220FFF7CDFC49E0CA
:10270000D548844209D101210804FFF7C5FC002106
:102710004FF48030FFF7C0FC3CE0D048844209D140
:1027200001214804FFF7B8FC00214FF40030FFF707
:10273000B3FC2FE0CA48844209D101218804FFF785
:10274000ABFC00214FF48020FFF7A6FC22E0C54837
:10275000844208D101214020FFF78DFC0021402058
:10276000FFF789FC16E0C048844208D1012180208F
:10277000FFF781FC00218020FFF77DFC0AE0BB48C9
:10278000844207D101218015FFF775FC0021A015B7
:10279000FFF771FC10BD00220288A84B98420ED0B2
:1027A000AC4B98420BD0B0F1804F08D0A44B98426C
:1027B00005D0A44B984202D0A34B984204D14FF6C7
:1027C0008F731A404B881A43A04B984207D0A04BF6
:1027D000984204D04FF6FF431A400B891A430280F7
:1027E0004B68C3620B880385944B984202D0994B87
:1027F000984201D18B7A03860123838270474FF080
:10280000FF31416000210180018141808172704768
:102810000185828270470A46002101884FF68F7336
:10282000194011430180704741627047C16270478F
:102830000146486A70470146088D704721B10288F9
:1028400042F00202028004E002884FF6FD731A4053
:102850000280704721B1028842F00402028004E045
:1028600002884FF6FB731A400280704721B102883C
:1028700042F08002028004E002884FF67F731A4023
:102880000280704702884FF6F7731A400280028870
:102890000A430280704702884FF6FF431A400280C5
:1028A00002880A430280704721B1028842F0010287
:1028B000028004E002884FF6FE731A4002807047DF
:1028C00070B5002400220023058C4FF6FE763540BB
:1028D0000584028C8388048B4FF68F752C40B51EBF
:1028E0002C400D882C43751E2A408D892A434D8823
:1028F0002A43524DA84202D0564DA84213D14FF65A
:10290000F7752A40CD892A434FF6FB752A408D88FA
:102910002A434FF6FF652B404FF6FF552B400D8A9B
:102920002B434D8A2B43838004838D684563028447
:1029300070BD70B5002400220023058C4FF6EF76A1
:1029400035400584028C8388048B48F6FF752C4043
:102950004FF6FF452C400D884FF6FF7606EA052519
:102960002C434FF6DF752A408D8906EA05152A4368
:102970004D8806EA05152A43304DA84202D0354D50
:10298000A8421DD14FF67F752A40CD894FF6FF76BC
:1029900006EA05152A434FF6BF752A408D8806EAD8
:1029A00005152A434FF6FF352B404FF2FF752B409C
:1029B0000D8A06EA85052B434D8A06EA85052B43D9
:1029C000838004838D688563028470BD70B50024A4
:1029D00000220023058C4FF6FF6635400584028CEB
:1029E0008388848B4FF68F752C404FF6FC752C40F6
:1029F0000D882C434FF6FF552A408D894FF6FF7600
:102A000006EA05252A434D8806EA05252A430B4D8B
:102A1000A84202D00F4DA84238D14FF2FF752A408C
:102A2000CD894FF6FF7606EA05252A434FF6FF3596
:102A30002A408D8806EA05252A4319E00000014056
:102A40000004004000080040000C0040001000405E
:102A500000140040000401400040014000440140D7
:102A60000048014000180040001C004000200040C9
:102A70004EF6FF752B404DF6FF752B400D8A06EA8A
:102A800005152B434D8A06EA05152B438380848365
:102A90008D68C563028470BD70B5002200230024D8
:102AA000058C4EF6FF7635400584038C8488828B36
:102AB00048F6FF752A404FF6FF452A400D884FF62D
:102AC000FF7606EA05252A434DF6FF752B408D89D2
:102AD00006EA05352B434D8806EA05352B43FE4DA6
:102AE000A84202D0FD4DA84208D14BF6FF752C40FC
:102AF0000D8A4FF6FF7606EA85152C438480828383
:102B00008D680564038470BD00210180418081804F
:102B100081608181C18101824182704770B5034625
:102B2000002000241846183001258D40ACB21D8CC1
:102B3000A5431D8409B108290AD100EB610005688D
:102B40004FF68F76354005600568154305600FE048
:102B50000D1FC5F34E052844056848F6FF7635403D
:102B6000056005684FF6FF7606EA022635430560E4
:102B700070BD4163704781637047C16370470164F2
:102B800070470A460021018B4FF68F73194011439D
:102B9000018370470A460021018B48F6FF731940F4
:102BA0004FF6FF7303EA02231943018370470A4675
:102BB0000021818B4FF68F73194011438183704739
:102BC0000A460021818B48F6FF7319404FF6FF73C8
:102BD00003EA02231943818370470A460021018BCF
:102BE0004FF6F77319401143018370470A460021DD
:102BF000018B4FF2FF7319404FF6FF7303EA022374
:102C00001943018370470A460021818B4FF6F77301
:102C100019401143818370470A460021818B4FF28E
:102C2000FF7319404FF6FF7303EA022319438183B0
:102C300070470A460021018B4FF6FB731940114380
:102C4000018370470A460021018B4FF6FF3319407C
:102C50004FF6FF7303EA02231943018370470A46C4
:102C60000021818B4FF6FB7319401143818370471C
:102C70000A460021818B4FF6FF3319404FF6FF7350
:102C800003EA02231943818370470A460021018B1E
:102C90004FF67F7319401143018370470A460021A4
:102CA000018BC1F30E014FF6FF7303EA02231943B0
:102CB000018370470A460021818B4FF67F731940CC
:102CC0001143818370470A460021818BC1F30E01B5
:102CD0004FF6FF7303EA02231943818370470A46C4
:102CE0000021018C4FF6FD73194011430184704798
:102CF0000A460021018C4FF6F773194011430184F5
:102D000070470A460021018C4FF6DF7319404FF6D9
:102D1000FF7303EA02131943018470470A46002136
:102D2000018C4FF67F7319404FF6FF7303EA0213CD
:102D30001943018470470A460021018C4FF6FF5366
:102D400019404FF6FF7303EA0223194301847047C9
:102D50000A460021018C4FF2FF7319404FF6FF73B2
:102D600003EA02231943018470470A460021018CBB
:102D70004DF6FF7319404FF6FF7303EA0233194310
:102D80000184704730B5002301248C40A3B2048C29
:102D90009C430484048C02FA01F5ADB22C430484F4
:102DA00030BD30B5002304248C40A3B2048C9C4376
:102DB0000484048C02FA01F5ADB22C43048430BDC6
:102DC000828B4FF2FF331A408283828B4FF6FF7360
:102DD00003EA01231A4382837047F0B50C46154677
:102DE000002100220026078C4EF6FF7C07EA0C0724
:102DF0000784818B028C4FF6FF7707EA043640F692
:102E0000FF4739404FF6FF7707EA052739434FF66A
:102E1000FF7707EA0337394345F6FF773A4046F430
:102E200080573A4381830284F0BD828B4FF6F3735F
:102E30001A408283828B0A4382837047F0B50C4626
:102E40001546002100220026078C4FF6FF6C07EA8A
:102E50000C070784818B028C4FF6FF7707EA042664
:102E60004FF60C7739404FF6FF7707EA03172F43E9
:102E700039434FF2FF573A4046F480773A43818313
:102E80000284F0BD028B4FF2FF331A400283028BA3
:102E90004FF6FF7303EA01231A4302837047F0B52C
:102EA0000C461546002100220026078C4FF6EF7CC9
:102EB00007EA0C070784018B028C4FF6FF7707EABD
:102EC000041640F6FF4739404FF6FF7707EA03370D
:102ED00039434FF6FF7703E0000001400004014052
:102EE00007EA052739434FF65F773A4046F0100767
:102EF0003A4301830284F0BD028B4FF6F3731A400C
:102F00000283028B0A4302837047F0B50C461546D4
:102F100000210022068C4FF6FE773E400684018B8E
:102F2000028C4FF60C7631407E1C06EA03162E43C7
:102F300031434FF6F576324044F0010632430183C7
:102F40000284F0BD70B505460C46208850B923892F
:102F5000A28861882846FFF7D8FFE1882846FFF756
:102F6000CBFF25E0208804280AD12389A288618824
:102F70002846FFF794FFE1882846FFF783FF17E014
:102F8000208808280AD12389A28861882846FFF76B
:102F900055FFE1882846FFF748FF09E02389A2880A
:102FA00061882846FFF719FFE1882846FFF708FFE8
:102FB00070BD002101804180012181800021C180FC
:102FC000018170472DE9F04105460C460026012796
:102FD000608808B9022600E00026A088012801D1F7
:102FE000022700E001272088A0B92389A2886188F0
:102FF0002846FFF78AFFE1882846FFF77DFF2389EF
:103000003A4631462846FFF74AFFE1882846FFF74F
:1030100039FF13E02389A28861882846FFF73FFF24
:10302000E1882846FFF72EFF23893A463146284695
:10303000FFF76BFFE1882846FFF75EFFBDE8F081F0
:103040000146486B70470146886B70470146C86B64
:1030500070470146086C70470A884B881A438B8872
:103060001A43CB881A430B891A434B891A438B891D
:103070001A43A0F8442070470021018041808180DC
:10308000C180018141818181704731B1B0F8442014
:1030900042F40042A0F8442005E0B0F84420C2F316
:1030A0000E02A0F84420704721B1828842F0040249
:1030B000828004E082884FF6FB731A40828070475A
:1030C00021B1828842F00102828004E082884FF6BA
:1030D000FE731A40828070471AB183890B43838143
:1030E00002E083898B438381704781827047024667
:1030F0000020138A0B4201D0012000E0002070471D
:10310000CA430282704730B50246002000230024E3
:10311000158A05EA0103958905EA010413B10CB18A
:10312000012000E0002030BDCA430282704741EA1E
:103130000203A0F8483070471AB183890B4383819A
:1031400002E083898B438381704721B1828842F0FA
:103150000802828004E082884FF6F7731A4082806A
:10316000704701894FF6F8721140018170470A4695
:10317000002101894FF68F73194011430181704777
:1031800030B504460D4629462046FFF7F0FF20895A
:1031900040F00700208130BD2DE9F04104460D4686
:1031A00016461F46602D06D13B4601223146204679
:1031B000FFF775FE05E03B46012231462046FFF74A
:1031C000A4FE29462046FFF7D2FF208940F00700E1
:1031D0002081BDE8F08130B50C4600210189C9B2DB
:1031E0004FF6FF7505EA0325154325432943018161
:1031F00030BD2DE9F04105460E461746984600249D
:1032000043463A4631462846FFF7E5FF2C894FF6FC
:10321000F870044044F007044FF68F70044044F007
:1032200070042C81BDE8F081F0B504460D461646C9
:103230001F463B46324629462046FFF7CCFF2089F1
:1032400040F480402081F0BD82884FF68F731A4091
:10325000828082880A438280704702894FF6F87321
:103260001A40028102890A430281704702894FF69F
:103270007F731A40028102890A4302817047F0B5C8
:103280000C4615461E460021002200230189028BB0
:10329000038C4FF6F877394021434FF6FC473A400C
:1032A00040F201173A434FF6DD773B404FF6FF7788
:1032B00007EA06172F433B43018102830384F0BDD5
:1032C00021B1828842F08002828004E082884FF639
:1032D0007F731A4082807047A0F85010704700003A
:1032E00000BFFEE710B504464FF48050E84908607F
:1032F00007E0E7490868411EE54A116008B9FFF791
:10330000EFFF0221E348FFF718F90028F1D021462A
:10331000E048FFF7DBF84FF48050DD49086007E034
:10332000DB490868411EDA4A116008B9FFF7D8FF87
:103330000121D848FFF701F90028F1D0D548FFF75F
:10334000C2F8C0B210BD70B505460E461446012C39
:1033500001DD46F040060821CF48FEF729FC304643
:10336000FFF7C0FF05E02878FFF7BCFF601E84B2BE
:103370006D1C012CF7DA0821C748FEF717FC70BD59
:1033800000B587B001210803FEF71EFE01210846A3
:10339000FEF7D6FD01211020FEF7D2FD01211020FD
:1033A000FEF7CEFD01211020FEF7CAFD05221146D1
:1033B000BA48FEF70AFC05220621B848FEF705FCCC
:1033C00005220721B548FEF700FC02208DF8180001
:1033D00000208DF81A0002208DF81B008DF81900CE
:1033E0002020059005A9AD48FEF764FB80200590DC
:1033F00005A9AA48FEF75EFB4020059005A9A7484D
:10340000FEF758FBA348FEF7D9FE0020ADF80000F8
:10341000ADF80400ADF80600ADF808004FF40070F8
:10342000ADF80A000820ADF80C000020ADF80E0041
:103430000720ADF810004FF48270ADF80200694625
:103440009448FEF7E1FE01219248FEF7BEFF0820F6
:10345000059001208DF8180000208DF81A00022038
:103460008DF8190005A98C48FEF724FB08218A482D
:10347000FEF79CFB0120059000208DF818008DF8C8
:103480001A0002208DF8190000208DF81B0005A9F4
:103490008148FEF70FFB0220059005A97E48FEF744
:1034A00009FB07B000BD38B5044600200090FFF7C7
:1034B00067FF607821780843E17808432179084361
:1034C000A17808430090012220216846FFF73BFFC6
:1034D00038BD70B506460C461546012D02DD44F098
:1034E000C00401E044F0800408216B48FEF760FB53
:1034F0002046FFF7F7FE06E00020FFF7F3FE3070EE
:10350000681E85B2761C002DF6DC08216248FEF7A5
:103510004DFB70BD38B504460020009001222121EA
:103520006846FFF7D6FF9DF8000000F0D00000903D
:10353000207861780843A17808439DF8001008437B
:103540000090012221216846FFF7FDFE38BD38B505
:10355000044600200090012238216846FFF7B9FF99
:10356000207861780843A17808430090012238212F
:103570006846FFF7E8FE38BD38B504460122202131
:103580006846FFF7A6FF9DF8000000F0BF0000901E
:103590009DF8000020430090012220216846FFF79B
:1035A000D2FE38BD38B50446012220216846FFF717
:1035B00090FF9DF8000000F07F0000909DF8000053
:1035C00020430090012220216846FFF7BCFE38BD51
:1035D00038B50446012220216846FFF77AFF9DF89E
:1035E000000000F0DF0000909DF8000020430090F4
:1035F000012220216846FFF7A6FE38BD08B501224A
:1036000021216846FFF765FF9DF8000040F040006B
:103610000090012221216846FFF795FE08BD3EB5C6
:1036200005460024012220216846FFF752FF0622AA
:10363000292101A8FFF74DFF9DF8000010F02000A0
:1036400002D0202820D10FE000240AE001A911F8BF
:10365000140040B200EBC000400028602D1D601C2B
:10366000C4B2032CF2DB10E000240AE001A911F837
:10367000140040B200EBC000C00028602D1D601C8B
:10368000C4B2032CF2DB00E000BF00BF3EBD00006F
:103690000001002000300140001002400000024004
:1036A0002DE9FE4F804681EA0300C00F0C460090D2
:1036B00021F0004123F00045B8EB0200A94105D2FA
:1036C0004046214690461C460B46024623F00040E9
:1036D000104304D14046214603B0BDE8F08F270DCA
:1036E000C7F30A00C3F30A510290401A0190402820
:1036F00066DAC3F3130040F4801B0098924620B1B1
:103700000023D2EB030A63EB0B0B01985946C0F17F
:103710004002504600F0F2F906460D465046594622
:10372000019A00F00AFA10EB08006141002487EAD0
:10373000115284EAE7731A433BD0009A3AB3019AD4
:10374000012A4FEA075210DC001B61EB02014FF027
:10375000004202EA0752CDE90042001C41F5801107
:1037600032462B4600F03EFAB6E7001B61EB020141
:10377000001C41F5801300185B412018A2F50017CA
:1037800047EB030140EAD570B6196D4111E06D08B1
:103790004FEA360645EAC0754FEA0752001B61EB57
:1037A0000201001C41F5801149084FEA3000001960
:1037B000514132462B4603B0BDE8F04F00F005BA48
:1037C0000098012240000023D0EB020263EBE0737B
:1037D000009821464FEAE074B8EB000061EB040169
:1037E000E9E783F000435BE781F0004158E72DE90A
:1037F000FE4F81EA030404F0004421F000410094EC
:103800004FF0000B23F0004350EA010402D052EACB
:10381000030404D10020014603B0BDE8F08FC3F3D8
:103820000A54C1F30A552C44A4F2F3340194A0FBCA
:103830000254C1F3130141F48011C3F3130343F4A1
:10384000801301FB024400FB034E840A970A44EAFA
:10385000815447EA8357A4FB076802958D0A05FB4C
:1038600007854FEA932C04FB0C542705029D4FEA71
:10387000065847EA1637B5EB08056EEB070C870EBE
:10388000920E47EA811742EA8312A7FB0201B6EBC8
:103890000B0164EB00042B0D43EA0C335E1844EB80
:1038A0001C50DA465146E7FB0201C5F313044FEA08
:1038B0000B3343EA14534FEA0432019C43EA0603F4
:1038C000A4F10C040294009CCDE900B400F08AF944
:1038D000A2E72DE9F04D81EA030404F0004B21F04A
:1038E000004514464FF0000A23F0004150EA05025B
:1038F00020D054EA01021DD0C5F30A570246C5F391
:103900001303C1F31300C1F30A5640F4801543F4C6
:103910008013A7EB0608101BD64608F2FD3873EBA0
:10392000050002D308F1010801E092185B41B8F1EB
:10393000000F03DA00200146BDE8F08D00204FF4AF
:103940008011064684460EE0171B73EB050705D36E
:10395000121B63EB050306434CEA010C49084FEACE
:10396000300092185B4150EA0107EDD152EA0300A2
:1039700012D082EA040083EA0501084303D1002241
:103980004FF0004308E0101BAB4102D2012200239C
:1039900002E06FF0010253101AEB06004CEB0851E5
:1039A00010EB0A0041EB0B01BDE8F04D00F00DB942
:1039B0000EB5C10F80EAE0700844CA07002140F24A
:1039C00033438DE80E000A460B4600F00BF903B0B6
:1039D00000BD70B5C1F30A5201F000450024C1F3E7
:1039E000130140F2FF3341F480119A4201DA0020C2
:1039F00070BD40F233439A42A2F2334203DC52429A
:103A000000F08BF800E090402C43F1D0404270BDB4
:103A100000F0004230F000400AD0C10D01F56071A5
:103A2000C0F3160042EA0151C20840071143704733
:103A300000200146704701F0004330B421F00041FE
:103A400050EA010206D00A0DA2F56072C1F313011B
:103A5000002A02DC30BC00207047440F44EAC10455
:103A6000C100E01830BC00EBC25000F078B830B5AF
:103A70000B46014600202022012409E021FA02F52C
:103A80009D4205D303FA02F5491B04FA02F52844C6
:103A9000151EA2F10102F1DC30BD2DE9F05F0546F3
:103AA000002092469B4688460646814640241BE0FD
:103AB000284641464746224600F02FF853465A46CC
:103AC000C01A914110D311461846224600F016F84C
:103AD0002D1A67EB01084F4622460120002100F015
:103AE0000DF817EB00094E41201EA4F10104DFDCA4
:103AF000484631462A464346BDE8F09F202A04DB6B
:103B0000203A00FA02F1002070479140C2F12003F0
:103B100020FA03F3194390407047202A04DB203A2F
:103B200021FA02F00021704721FA02F3D040C2F1DD
:103B300020029140084319467047202A06DBCB1724
:103B4000203A41FA02F043EAE07306E041FA02F358
:103B5000D040C2F120029140084319467047002925
:103B6000A8BF7047401C490008BF20F00100704703
:103B700010B4B0FA80FC00FA0CF050EA010404BF63
:103B800010BC704749B1CCF1200421FA04F411FAB9
:103B90000CF118BF012121430843A3EB0C01CB1DFD
:103BA0000106000A002BBEBF002010BC704700EBCE
:103BB000C35010440029A4BF10BC7047401C4900EA
:103BC00008BF20F0010010BC704710B5002B08DAC8
:103BD000401C41F1000192185B411A4301D120F0D1
:103BE000010010BD2DE9F04D92469B4611B1B1FA8E
:103BF00081F202E0B0FA80F220329046FFF77EFFB9
:103C000004460F4640EA0A0041EA0B0153465A4671
:103C1000084303D120463946BDE8F08D114653EAEA
:103C2000010015D0C8F140025046FFF776FF054667
:103C30000E46504659464246FFF760FF084301D002
:103C4000012000E00020054346EAE0762C4337439C
:103C50000A984FEA4453A0EB08004FEAD4240A30F4
:103C60004FF0000244EA47544FEAD72502D500201E
:103C70000146D1E7010510196941DDE90845001940
:103C80006941BDE8F04DA0E770B521F00043034362
:103C90000CD0C1F30A550024D5EB040564EB0403F2
:103CA000D617AD1AB34102DB0020014670BD2018C3
:103CB00041EB025170BD2DE9F04D00231A461B1A4D
:103CC0008A4103DB00200146BDE8F08DC1F30A52B2
:103CD000C1F3130141F480154FF0000BD10702D15D
:103CE00000186D41521E0027044640F2FF1138466D
:103CF00001EB620A3E468046024600204FF48011E6
:103D0000FFF70BFFC2197141BB1846EB0100B4EB82
:103D1000030C75EB000C04D3E41A65EB00051746A1
:103D20000E46241908F101006D4180463428E3DD78
:103D3000F91946EB0600091BA84103D24FF0FF32E8
:103D4000134601E0002213461BEB070046EB0A5125
:103D5000BDE8F04DFFF739BFC1F30A52C1F31301BB
:103D600040F2FF3341F480119A4202DA002001460A
:103D7000704740F233439A42A2F2334202DC52428D
:103D8000FFF7CBBEFFF7BABE30B5002904DB4FF01A
:103D90000044404264EB0101002B04DB4FF000447F
:103DA000524264EB0303994208BF904230BD0000C9
:103DB000064C074D06E0E06840F0010394E8070078
:103DC00098471034AC42F6D3FCF7E2F9A06D000836
:103DD000D06D0008000000000FB4054B10B503A91A
:103DE000044A029801F080FA10BC5DF814FB000050
:103DF000C15A00082001002003B401984100009836
:103E000050EAC12018BF04204A0D18BF40F001003D
:103E100040F2FF72B2EB515F08BF40F00200012890
:103E200008BF052002B0704770B59F482DED020B0A
:103E30002DED068B079D25F00044A0421DDC9B481C
:103E4000844202DC0FD1069868B19DED060B53EC5D
:103E5000102B51EC100BFFF723FCBDEC068B02B0CE
:103E600041EC100B70BD002DCCBF9FED910B9FED71
:103E7000920BBDEC068B02B070BD9148A04215DDDF
:103E80009048A042D8BF4FF0FF3440DD9DED060BB7
:103E900051EC100BFFF7B0FF042808BF01F02CF91C
:103EA0009DED060BBDEC068B02B070BD9DED060BC3
:103EB00051EC100B01F0F4FD41EC100B82488DED3C
:103EC000060B9FED838BA0423CDD8348A0421FDDA3
:103ED00000249FED839B51EC100B53EC192BFFF743
:103EE000DFFB9DED060B41EC1A0B53EC192B51EC4B
:103EF000100BFFF77CFC53EC182BFFF772FC53EC14
:103F00001A2BFFF7E6FC41EC100B8DED060B49E098
:103F1000012453EC182B51EC100BFFF7C1FB9DED66
:103F2000060B41EC190B53EC182B51EC100BFFF75F
:103F300058FC53EC192BFFF7CCFC41EC100B8DED2A
:103F4000060B2FE06848A0421FDD02249FED689B0E
:103F500051EC100B53EC192BFFF749FC53EC182BC9
:103F6000FFF79EFB9DED060B41EC180B53EC192B54
:103F700051EC100BFFF735FC53EC182BFFF7A9FCA5
:103F800041EC100B8DED060B0CE053EC102B0324D1
:103F90009FED590B51EC100BFFF79BFC41EC100B04
:103FA0008DED060B9DED060B53EC102B51EC100B19
:103FB000FFF71DFC41EC180B53EC182BFFF717FC17
:103FC00041EC190B4E480621B0EE490AF0EE690AA1
:103FD000784401F012F853EC182B51EC100BFFF75A
:103FE00006FC41EC180B4748B0EE490AF0EE690AAE
:103FF0000521784401F001F853EC192B51EC100B1A
:10400000FFF7F5FB41EC100B51EC180B53EC102BA8
:10401000002C0EDAFFF744FB9DED061B53EC112B31
:10402000FFF7E5FB9DED061B53EC112BFFF7DCFBC7
:1040300035E0FFF735FB9DED061B53EC112BFFF729
:10404000D6FB41EC100B3048784400EBC40090EDF7
:10405000001B51EC100B53EC112BFFF7C2FB9DED35
:10406000061B53EC112BFFF7BCFB41EC110B27484F
:10407000784400EBC40090ED000B51EC110B53ECB5
:10408000102BFFF7B1FB41EC100B002DA2BFBDECD4
:10409000068B02B070BD51EC100B81F0004141EC79
:1040A000100BFFE600000000000010440000F07F4D
:1040B000182D4454FB21F93F182D4454FB21F9BF1E
:1040C0000000DC3F0000203E0000F33F0000000045
:1040D000000000000000F03F0000E63F000000008C
:1040E00000000000000000400080034000000000CD
:1040F000000000000000F83F000000000000F0BFDA
:10410000942D00004A2D0000D42C00008C2C0000BF
:1041100070B52DED040B2DED028B82B0DDE9053479
:10412000DDF81CC062422CF00041224341EAD27506
:104130005F4A049E23F00040954205D875423543FE
:1041400040EAD575954210D99DED060B53EC102B26
:104150009DED040B51EC100BFFF7A2FA41EC100B94
:1041600002B0BDEC028B04B070BDACF14055A5F1BE
:104170007F6525430BD0022505EAAC7545EAD3756A
:1041800006439FED4D8B9FED4E2B07D010E09DED2C
:10419000040B51EC100B01F04AFC39E0002D14BF68
:1041A000012D9DED040BDBD0022D34D0032D37D033
:1041B0000C439FED451B9FED460B0AD0914218D151
:1041C000904209D121F0804120F080400791059074
:1041D0000FE0002BC4DA10E03F4C7C44002D08BFF8
:1041E00094ED000BBCD0012D0CD0022D13D0032D6B
:1041F00016D0904219D1002BB2DAB0EE410AF0EE9F
:10420000610AADE794ED000B51EC100B81F0004119
:1042100041EC100BA4E7B0EE480AF0EE680A9FE705
:10422000B0EE420AF0EE620A9AE7401A00153C2806
:1042300017DCBCF1000FBCBF10F13C0F9FED280B49
:104240000FDB9DED060B53EC102B9DED040B51EC99
:10425000100BFFF73EFB01F023FC01F0E8FB41EC03
:10426000100B002D8DED000B3FF47AAF012D10D017
:10427000022D9FED1D0B53EC102B9DED000B51EC0F
:10428000100B0ED0FFF7ADFA53EC182BFFF7A9FA7D
:10429000BEE710EE900A80F0004001909DED000B0B
:1042A0005EE7FFF79EFA53EC182BFFF79DFAAFE796
:1042B0000000F07F00000000182D4454FB2109404D
:1042C000182D4454FB2109C0182D4454FB21F9BF7B
:1042D000182D4454FB21F93FBA2B000000000000C8
:1042E0000000000000000000075C143326A6A13C7B
:1042F0002DE9F04D2DED040B2DED0E8B94B0DDE985
:104300002350259CDDF888A025F0004624F00048C5
:10431000BAF1000F14BF0121002101EB4502FE4953
:1043200053184A1093422AD3002814BF01230023B4
:1043300003EB44030B44F9498B4220D358EA0001B4
:104340009FEDF78B6FD0DFF8E0B35D4503D1BAF195
:10435000000F05D181E0BAF1000F08BF002100D0A5
:10436000012101EB450111F5001F08D8002814BFF9
:104370000121002101EB440111F5001F0AD99DED37
:10438000240B53EC102B9DED220B51EC100BFFF77F
:1043900087F940E00027002DBCBFE449884521DAB9
:1043A000E3498845A8BF02271CDAC3451ADCE14966
:1043B00001EB2851142908DDC1F1340220FA02F181
:1043C00001FA02F282420DD108E058B9C1F114029B
:1043D00028FA02F101FA02F2424503D101F001018B
:1043E000C1F1020756EA0A019FEDD3AB1CD1002CA4
:1043F0001ADA002D18BF022F01D0012F07D002209A
:1044000000F09AFE53EC1A2B51EC180B05E1022038
:1044100000F092FE7DE041EC100B14B0BDEC0E8B71
:1044200004B0BDE8F08D18E09FEDC5BB9FEDC69BC5
:10443000002877D1BD48804522D105F1804010F594
:10444000801008BFBAF1000F07D0B3450ADC002C7A
:10445000A8BF9DED240BE0DA0DE0B0EE480AF0EEC7
:10446000680ADAE7002C06DA9DED240B51EC100BFC
:1044700081F00041CFE7B648784490ED000BCCE7DF
:10448000D84553D1002C4EDA2EB1864240D1BAF134
:10449000000F48D12CE0BAF1000F19D0022000F033
:1044A0004BFE53EC192B51EC190BFFF7A0F941EC23
:1044B000100B8DED020B9DED220B8DED000B10EE20
:1044C000900A039961F31E0003909DED020BA4E78F
:1044D0008DED02BB9DED220B1BEE901A10EE900AA3
:1044E0008DED000B61F31E0003909DED020B94E730
:1044F0008DED02AB9DED220B1AEE901A10EE900A94
:104500008DED000B61F31E0003909DED020B84E71F
:1045100009DA9DED220B51EC180B53EC102BFFF731
:10452000D8F978E71DE09DED220B76E7864218DA90
:10453000B4F1804F0DD0A4F10050B0F1FF5010D174
:10454000002D0EDB9DED220B51EC100B02F090F9CB
:1045500061E79DED220B53EC102B51EC100B00F09A
:10456000E1BC9DED220B51EC100B01F099FA41ECEE
:10457000100BBAF1000F8DED120B34D19FED760BBD
:10458000DEB1A6F1E040B0F17F602CD1002D01DD5D
:10459000002C0DDA002D01DD002C1FDB002D16DABA
:1045A000002C14DB012F08BF9FED6D0B3FF435AFDE
:1045B000B0EE4B0AF0EE6B0A2FE7022F18BF002D6A
:1045C0000CD0012F0AD1002DFFF627AF06E0002DF9
:1045D000B8BF002C07DA012F3FF41FAFB0EE4A0A34
:1045E000F0EE6A0A19E7012000EBE5700490384309
:1045F0000CD05D48002580457DDD5C495C488845E0
:1046000013DDB0420CDB002C18DB30E0012000F0A1
:1046100093FD53EC1A2B51EC1A0BFFF75AF9FAE6FB
:10462000B34502DC002C09DC21E0864202DA002CD2
:104630001DDA03E05E452DDD002C18DD022000F0C0
:104640007BFD53EC192B51EC190BFFF7D0F841EC23
:10465000100B1BEE900A10EE901A8DED020B8DEDF3
:1046600000BB61F31E0003909DED020BD5E6022016
:1046700000F062FD00F040FD10EE901A18EE900A76
:104680008DED020B8DED008B61F31E0003909DED0F
:10469000020BC2E69DED220B53EC182B51EC100BD4
:1046A000FFF79FF841EC100B8DED0C0B9FED320BDB
:1046B00053EC102B9DED0C0B51EC100BFFF797F802
:1046C0009FED2F1B53EC112BFFF78EF89DED0C1B6C
:1046D00053EC112BFFF78BF89FED2B1B53EC112B99
:1046E000FFF782F89DED0C0B41EC1A0B53EC102BED
:1046F00051EC100B00E08AE0FFF779F853EC1A2B2D
:10470000FFF775F89FED220B41EC1B0B53EC102BC0
:104710009DED0C0B40E00000FFFF1F00FFFF0F00AE
:10472000000000000000F03F0000F03F0000F07FBC
:104730000000404301FCFFFF0000000000000000FB
:10474000000000000000F07F00000000000000708A
:104750001C29000000000000000000000000008094
:10476000000000000000F0FF0000E0410000F04306
:10477000FFFFEF3F00000000000000000000D03FFE
:10478000555555555555D53F000000000000E03FF8
:10479000000000604715F73F51EC100BFFF727F8BA
:1047A00041EC1A0B9FEDFE0B51EC1B0B53EC102B45
:1047B000FFF71DF841EC1B0B9FEDFB0B53EC102B8F
:1047C0009DED0C0B51EC100BFFF711F853EC1B2B6C
:1047D000FFF707F841EC1B0B51EC1A0B53EC1B2BAA
:1047E000FEF75EFF41EC100B53EC1A2B8DED080B1E
:1047F00008959DED080B51EC100BFEF7F2FF53EC02
:104800001B2BFEF7F1FF41EC100B00F0AFB90020BD
:10481000B6F5801F11DA9FEDE60B53EC102B9DEDE2
:10482000120B51EC100BFEF7E2FF41EC100B6FF096
:10483000340010EE906A8DED120BDF4900EB26502C
:10484000A0F2FF38C6F3130040F07F6646F04056F2
:104850008842D8BF002409DDD8498142C8BF01245D
:1048600004DC002408F10108A6F58016D448784439
:1048700000EBC40A13969AED000B53EC102B9DED40
:10488000120B51EC100BFEF7ACFF9AED000B41EC54
:104890001B0B53EC102B9DED120B51EC100BFEF784
:1048A000FFFE41EC100B51EC180B53EC102BFFF7F3
:1048B00010F841EC1C0B51EC1B0B53EC1C2BFEF7BE
:1048C00096FF41EC1A0BBF488DED0AAB78440A9570
:1048D00090ED000B4FF0005040EA660000EB844082
:1048E0008DED100B00F5002011909AED000B53ECAC
:1048F000102B9DED100B51EC100BFEF772FF9DED90
:10490000121B53EC112BFEF76FFF41EC100B53EC15
:10491000102B9DED0A0B51EC100BFEF768FF9DED7F
:10492000100B41EC1D0B53EC102B9DED0A0B51ECC1
:10493000100BFEF75CFF53EC1B2BFEF755FF53ECFF
:104940001D2BFEF74EFF53EC1C2BFEF750FF41ECE6
:104950001C0B53EC1A2B51EC1A0BFEF748FF41ECE1
:104960001B0B99480621B0EE4B0AF0EE6B0A784417
:1049700000F043FBB0EE40DAF0EE60DA53EC1B2BB4
:1049800051EC1B0BFEF733FF53EC1D2BFEF72FFFF3
:104990009DED0A0B41EC1B0B53EC1A2B51EC100B49
:1049A000FEF77EFE53EC1C2BFEF721FF53EC1B2B76
:1049B000FEF776FE9DED0A0B41EC1D0B53EC102B20
:1049C00051EC100BFEF713FF41EC1B0B9FED80EB3E
:1049D00053EC1E2BFEF764FE53EC1D2BFEF760FE1E
:1049E00041EC100B53EC1E2B8DED100B10959DED33
:1049F000100B51EC100BFEF7F4FE53EC1B2BFEF7E3
:104A0000F0FE53EC1D2BFEF7EFFE9DED100B41EC7D
:104A10001D0B53EC102B9DED0A0B51EC100BFEF708
:104A2000E6FE41EC1B0B53EC1A2B51EC1D0BFEF771
:104A3000DEFE9DED100B41EC1A0B53EC102B51ECEC
:104A40001C0BFEF7D4FE53EC1A2BFEF729FE41ECAB
:104A50001A0B51EC1B0B53EC1A2BFEF721FE41EC09
:104A6000100B53EC1B2B8DED0A0B0A959DED0A0BD9
:104A700051EC100BFEF7B5FE53EC1A2BFEF7B4FE0B
:104A800041EC1A0B9FED540B53EC102B9DED0A0BD0
:104A900051EC100BFEF7ABFE41EC1B0B9FED500BE6
:104AA00051EC1A0B53EC102BFEF7A1FE41EC1A0B44
:104AB0009FED4D0B53EC102B9DED0A0B51EC100BA1
:104AC000FEF795FE53EC1A2BFEF7EAFD41EC100BB6
:104AD0004748784400EBC40090ED001B51EC100BEC
:104AE00053EC112BFEF7DCFD41EC1A0B4046FEF7B0
:104AF0005FFF41EC100B53EC1A2B8DED0C0B51ECBE
:104B00001B0BFEF7CDFD41EC100B3A48784400EB4F
:104B1000C40451EC100B94ED001B53EC112BFEF769
:104B2000BFFD9DED0C1B53EC112BFEF7B9FD41ECC5
:104B3000100B8DED080B08959DED0C0B53EC102B15
:104B40009DED080B51EC100BFEF74BFE94ED000BA6
:104B500053EC102BFEF745FE53EC1B2BFEF741FEEA
:104B600053EC1A2BFEF740FE41EC100B0498791E13
:104B7000B0EE48BAF0EE68BA084308BF9FED1E8B4E
:104B80009DED241B53EC102B8DED001B00959DED2E
:104B9000240B51EC100BFEF72AFE41EC1A0B2FE010
:104BA000FE822B654715F73F44DF5DF80BAE543EA0
:104BB00000000000000040438E9803007AB60B000E
:104BC00006240000C8240000362300000000000076
:104BD0000000000000000840000000E009C7EE3FB0
:104BE000FD033ADC09C7EE3FF5015B14E02F3EBE42
:104BF000C221000078210000000000000000F0BF8A
:104C00009DED000B53EC102B9DED240B51EC100B84
:104C1000FEF7E7FD9DED081B53EC112BFEF7E7FDBA
:104C200053EC1A2BFEF73CFD9DED080B41EC1A0BE3
:104C300053EC102B9DED000B51EC100BFEF7D7FD44
:104C400041EC100B51EC1A0B8DED0A0B53EC102BB1
:104C5000FEF726FD41EC100BB54910EE904A10EE20
:104C6000100A8DED020B8C4235DB611A084318D116
:104C70009DED0A0B53EC102B9DED020B51EC100B2C
:104C8000FEF7AFFD41EC1C0B9FEDAB0B51EC1A0B8B
:104C900053EC102BFEF704FD53EC1C2BFFF774F8BC
:104CA00033D2022000F048FA53EC192B51EC190BC7
:104CB000FEF79DFD41EC100B18EE900A10EE901AD5
:104CC0008DED020B8DED008B61F31E0003909DEDC9
:104CD000020BFFF7A2BB9A4A24F00041914214D381
:104CE0009849214408437FF4C2AC9DED0A0B53EC74
:104CF000102B9DED020B51EC100BFEF772FD53ECE7
:104D00001A2BFFF741F87FF6B2AC24F000408E4931
:104D10008E4A002601EB20519042D8BF9DED0A0B30
:104D20002DDD481C4FF4801121FA00F02044C0F31F
:104D30000A51874AA1F2FF317A4492ED000B854A6D
:104D40008DED0C0BCA4020EA0202C0F3130040F4C0
:104D50008010C1F1140120FA01F60D92002CB8BFA9
:104D600076429DED0C0B53EC102B9DED0A0B51EC94
:104D7000100BFEF736FD41EC100B8DED0A0B53ECDA
:104D8000102B51EC1A0BFEF78BFC41EC100B8DED48
:104D90000C0B9FED710B0C9553EC102B9DED0C0B38
:104DA00051EC100BFEF723FD41EC190B9FED6C0B42
:104DB00053EC102B9DED0C0B51EC100BFEF717FD77
:104DC0009DED0A0B41EC1C0B53EC102B9DED0C0BD5
:104DD00051EC100BFEF705FD53EC1A2BFEF704FD0A
:104DE0009FED611B53EC112BFEF701FD53EC1C2BC7
:104DF000FEF756FC41EC1A0B51EC190B53EC1A2B35
:104E0000FEF74EFC41EC100B53EC192B8DED020B11
:104E1000FEF7E7FC53EC1A2BFEF7E6FC9DED020BC8
:104E200041EC190B53EC102B51EC100BFEF7DFFC8F
:104E300041EC100B4E488DED0C0B0521784400F031
:104E4000DCF89DED0C1B51EC100B53EC112BFEF715
:104E5000CEFC9DED021B53EC112BFEF7C5FC41EC83
:104E6000100B53EC192B8DED080B9DED020B51EC43
:104E7000100BFEF7BCFC53EC192BFEF711FC9FED59
:104E80003E0B41EC1A0B53EC102B9DED080B51EC33
:104E9000100BFEF7A6FC9DED080B41EC190B53EC33
:104EA000102B9DED020B51EC100BFEF7A0FC53EC08
:104EB000192BFEF70EFD53EC1A2BFEF792FC9DED1D
:104EC000021B53EC112BFEF78CFC53EC1B2BFEF753
:104ED0008BFC41EC100B10EE900A8DED020B00EBF9
:104EE000065001150029C4BF03909DED020B15DC8F
:104EF000324651EC100BFEF7C7FEFEF77DFF04288B
:104F000008BF00F0F9F832469DED020B51EC100B92
:104F1000FEF7BAFE41EC100B8DED020B53EC102B9B
:104F200051EC180BFEF763FCFFF775BA00000000A8
:104F30000000904000000000FE822B654715973C62
:104F400000CC904000346F3F01FCFFFF0000E03FC9
:104F50005C200000FFFF0F0000000000432EE63F32
:104F6000396CA80C615C20BEEF39FAFE422EE63F98
:104F7000981E00000000000000000000000000403B
:104F800000B52DED048BB0EE408AF0EE608A83B060
:104F900051EC180BFEF78FFE41EC190B19EE100ABD
:104FA00019EE901A8DED009B002818BF01200843D0
:104FB00020F00040C0F17F6000F1E040C00F14D04D
:104FC00018EE101A18EE900A8DED008B002918BF0C
:104FD0000121084320F00040C0F17F6000F1E04073
:104FE000C00F04BF012000F0A7F8B0EE490A03B0DB
:104FF000F0EE690ABDEC048B00BD70B504462DEDE2
:10500000028B4D1E00EBC500B0EE408AF0EE608AC8
:1050100090ED000B35F0060017D053EC182B51EC37
:10502000100BFEF7E4FB41EC100B6D1E04EBC5000A
:1050300090ED001B51EC100B53EC112BFEF730FBE5
:1050400041EC100B35F00600E7D1022D36D0042DCF
:105050001CD0062D1CBFBDEC028B70BD53EC182B71
:1050600051EC100BFEF7C3FB94ED0A1B53EC112B14
:10507000FEF716FB53EC182BFEF7B9FB94ED080B6B
:1050800053EC102BFEF70CFB41EC100B53EC182BE0
:1050900051EC100BFEF7ABFB94ED060B53EC102B11
:1050A000FEF7FEFA53EC182BFEF7A1FB94ED041B60
:1050B00053EC112BFEF7F4FA41EC100B53EC182BC8
:1050C00051EC100BFEF793FB94ED020B53EC102BFD
:1050D000FEF7E6FA53EC182BFEF789FB94ED000B74
:1050E00053EC102BFEF7DCFABDEC028B41EC100BFD
:1050F00070BD0000000000009FED050B10B553ECE3
:10510000102B51EC100BFEF772FB41EC100B10BD95
:10511000000000000000001002E008C8121F08C1D3
:10512000002AFAD170477047002001E001C1121F28
:10513000002AFBD170470000014908607047000059
:10514000240100202DE9FF5FDDE90220010DDDF8DB
:1051500038B0024310D10F9801244CA2012808D086
:10516000002100980F9BC0E90021C0E90243BDE87F
:10517000FF9F6FEA0B01F4E7A1F2FF3144F61050F4
:1051800041430D140F9801280ED0A5EB0B00401CD5
:105190004FF000043E4EDFF8FC90B0F1000AA0464C
:1051A00005DACAF1000717E0CBF10000F0E7074687
:1051B00012E0F80707D02246334640464946FEF73C
:1051C00016FB804689462246334610461946FEF7AE
:1051D0000EFB04460E467F10002FEAD1DDE90201E6
:1051E000BAF1000F42464B4602DAFEF700FB01E03F
:1051F000FEF76FFB04460E460022274BFEF7C4FD68
:1052000003D84FF0FF30014607E00022234B204631
:105210003146FEF745FAFEF79FFD102409E0002C09
:105220000ADB0A220023FEF738FC019B30321A55B4
:10523000641E50EA0102F2D1641C019AC4F1110308
:1052400014440F9A012A09D00122084301D15B4579
:105250000FDD4FF0000205F101050DE0084303D119
:10526000A3EB0B056D1E09E000204FF0110B0F9012
:1052700088E701DA00226D1E002A83D000980F997A
:10528000C0E90231C0E9004571E7000030000000CC
:10529000000024400000F03F0000F0430000E03F29
:1052A00010B5002A06DA22F00042D21D22F00703D0
:1052B000102203E0D21C22F003030C2213B19C182D
:1052C0008C4201D9012010BD024401448360C0E931
:1052D0000021C91AD018884202D810600246F9E7A6
:1052E0000020106010BD00002DE9FF4F95B09B46D7
:1052F00089460646002512E2252878D10024761C2E
:10530000F94A2746012105943378203B01FA03F03E
:10531000104202D00443761CF6E730782A2811D0D8
:105320006FF02F033078A0F13002092A16D8059AC1
:1053300044F0020402EB820203EB42021044761CAA
:105340000590EFE759F8042B0592002A03DA504242
:1053500044F40054059044F00204761C30782E2862
:1053600016D116F8010F44F004042A280DD06FF06E
:105370002F023078A0F13003092B09D807EB8703FF
:1053800002EB4303C718761CF3E759F8047B761C3D
:1053900030786C280FD006DC4C2817D068280DD048
:1053A0006A2814D104E0742810D07A280FD10DE0B7
:1053B00044F400140AE044F4801401E044F440147E
:1053C0007278824202D1761C04F58014761C307803
:1053D00066280BD013DC582877D009DC002875D05C
:1053E0004528F6D04628F4D047281AD19FE118E086
:1053F000632835D0642879D0652812D197E17028C8
:1054000073D008DC6728F1D069286FD06E280DD0E2
:105410006F2806D1B5E073282CD0752875D0782870
:1054200074D05A46179990476D1C76E1C4F3025028
:10543000022809D003280DD0D9F8001004280DD077
:105440000D6009F1040968E1D9F80010EA17C1E913
:105450000052F6E7D9F800100D80F2E70D70F0E782
:1054600019F8041B8DF8001000208DF80100EA46A1
:10547000012003E059F804AB4FF0FF3061074FF013
:10548000000102D40DE008F101018846B9420FDAAB
:105490008045F8DB1AF808100029F4D108E008F17B
:1054A000010188468142FADB1AF808100029F6D17A
:1054B00005985B46A0EB080721463846179A00F08E
:1054C0009EFA284400EB080507E04DE02BE10DE0D3
:1054D0001AF8010B5A4617999047B8F10108F7D20C
:1054E0005B4621463846179A14E142E00A220092B0
:1054F000C4F302524FF0000A022A08D059F804CB34
:10550000032A4FEAEC710AD00DE029E02AE009F104
:10551000070121F00702F2E802C1914609E00FFA03
:105520008CFC4FEAEC71042A03D14FFA8CFC4FEA51
:10553000EC71002907DA0A460021DCF1000C61EB6E
:1055400002012D2202E0220504D52B228DF8042031
:10555000012203E0E20701D02022F7E7904653E062
:105560000A2102E010220DE010214FF0000A009104
:105570000BE010224FF0000A44F0040408270092C8
:1055800003E008224FF0000A0092C4F30252022AFC
:1055900005D059F804CB0021032A08D009E009F10D
:1055A000070121F00702F2E802C1914605E01FFA67
:1055B0008CFC042A01D10CF0FF0C4FF000082207EC
:1055C00022D5702827D0009B83F0100353EA0A03EA
:1055D00009D15CEA010206D030228DF804208DF852
:1055E000050002229046009B83F0080353EA0A0359
:1055F0000AD15CEA010201D1620705D530228DF89B
:1056000004204FF001087F1E582809D037A00390CE
:105610000EA8029013E040228DF804200122E1E759
:1056200037A0F4E753466046009AFEF736FA844600
:105630000398825C0298A0F10100029002705CEA7B
:105640000100EFD1029806A9A1EB000000F1200AA9
:10565000600702D524F4803400E00127574502DDBD
:10566000A7EB0A0000E0002000EB0A01009005987B
:105670004144A0EB01000590E00306D45B462146BF
:10568000179A059800F0BBF90544002706E001A829
:105690005A46C05D179990476D1C7F1C4745F6DB45
:1056A000E0030CD55B462146179A059800F0A7F950
:1056B000054404E030205A46179990476D1C009924
:1056C000481E00900029F5DC08E0029802995A462D
:1056D0000078491C0291179990476D1CBAF100019E
:1056E000AAF1010AF1DC6BE1092801003031323303
:1056F000343536373839616263646566000000000E
:1057000030313233343536373839414243444546F7
:105710000000000000F060F9054406F10106307851
:1057200000287FF4E9AD19B02846BDE8F08F620784
:1057300000D4062709F1070222F0070CFCE8022337
:10574000E14603F000485FEA080C02D00FF27C2C1F
:105750000DE05FEA045C02D50FF2742C07E05FEA0B
:10576000C47C02D00FF26C2C01E0AFF2700C4FF051
:10577000FF3823F00043CDF850C065280CD006DC7C
:10578000452809D046281DD047283ED13EE066284E
:1057900018D0672839D139E00021112F01DB112001
:1057A00000E0781CCDE9000106A90EA8FFF7CAFCAD
:1057B000DDE90F010E9A03910021009207F1010A21
:1057C00004914EE04FF000400097CDE9011006A98A
:1057D0000EA8FFF7B7FCDDE90F0203920E9B1199AB
:1057E0000022DDF80CA00093049219B907F1010121
:1057F00000EB010AB7EB0A0004D4C0F1FF3007F157
:10580000010A0490AAEB0700019046E0012F00DA9C
:1058100001270021112F01DD112000E03846CDE9DC
:10582000000106A90EA8FFF78DFCDDE90F010E9A15
:105830000391002104910092BA4621070CD40399E8
:10584000514500DA8A46BAF1010F05DD009AAAF146
:105850000101515C302908D0B84202DA10F1040F7E
:1058600006DA0121CDE9011017E0AAF10101E9E70B
:10587000002805DC049901440491AAEB000102E030
:10588000411C514500DD8A460499A0EB010000F15E
:10589000010001904FF000400290200704D40198CD
:1058A000504501DBCDF8048000208DF84F000298B0
:1058B0000DF14F07B0F1004F25D02B200E9002982C
:1058C0004FF0020800280CDA404202902D200E9082
:1058D00007E00A210298FEF7CAF83031029007F873
:1058E000011DB8F10001A8F10108F2DC02980028BE
:1058F000EFD1791E0E980870307800F0200040F04B
:10590000450007F8020D12A8A0EB070000F10708F8
:105910001498007800B1012000EB0A01019801EB16
:10592000E07105984144A0EB0100A0F10100059051
:10593000E00306D45B462146179A059800F05FF80D
:1059400005441498007820B15A461799904705F1FC
:105950000105E00323D55B462146179A059800F020
:105960004EF805441BE00498002807DBDDE903013D
:10597000884203DD0098405C179901E017993020B8
:105980005A46904704986D1C401C04900198401E94
:10599000019004D12E205A46179990476D1CBAF1F8
:1059A0000001AAF1010ADEDC05E017F8010B5A46F6
:1059B000179990476D1CB8F10001A8F10108F4DCBB
:1059C0005B462146179A0598A4E600002D000000CA
:1059D0002B000000200000002DE9F04104460025C6
:1059E0001E461746880405D406E039462020B047F5
:1059F00005F10105641EF8D52846BDE8F0812DE9C2
:105A0000F041044600251E469046C80301D53027C4
:105A100000E02027880405D506E041463846B04717
:105A200005F10105641EF8D52846BDE8F08110B5E2
:105A300041EC100BFEF7F8F951EC100B10BD000013
:105A400008480068C0010BD507480068C00707D0A8
:105A5000054880380068002802DA044901200870EF
:105A600070470000FCED00E0800E00E01601002011
:105A70004FF06042D36F002BFCD0C36AD367D36F63
:105A8000002BFCD0C07840EA0120A2F87C007047CF
:105A90004FF06041CA6F002AFCD081F87C0070474B
:105AA00041EC100B82B010EE900A8DED000B20F04F
:105AB000004001909DED000B02B051EC100B7047BF
:105AC00038B504468DF8000069460320ABBE204679
:105AD00038BD70B504000D4603D012B920780128F6
